:100000000C940E080C9455080C9455080C94AA1ED8
:100010000C9455080C9455080C9455080C945508EC
:100020000C9455080C9455080C9457300C942B31B3
:100030000C948E2B0C9455080C9455080C94550870
:100040000C9455080C9455080C9455080C945508BC
:100050000C9455080C94E52B0C9455080C945508F9
:100060000C9455080C9455080C9455080C9455089C
:100070000C9455080C9455080C9455080C9455088C
:100080000C9455080C9455080C9455080C9455087C
:100090000C9455080C9455080C9455080C9455086C
:1000A0000C9455080C9455080C9455086F011501D3
:1000B000ED00B60000000006BBA7E80606BBA7E8F7
:1000C0000C06BBA7E81206BBA7E818010000002039
:1000D00006BBA7E82606BBA7E82C06BBA7E83206A6
:1000E000BBA7E83801000000FF000000000006A6E2
:1000F000D8E30605A6D8E30C06A6D8E32006A6D8C2
:10010000E32604A6D8E32C03A6D8E33203A6D8E35B
:10011000FF00000000000644CEDB060644CEDB0CE8
:100120000644CEDB120644CEDB200473CED6240276
:1001300044CEDB260106D2FF250373CED62A024425
:10014000CEDB2C0106D2FF2D0373CED6300244CE77
:10015000DB320106D2FF330373CED6360244CEDB48
:10016000390473CED63D0244CEDBFF000000000010
:100170000106D2FF060106D2FF0C0106D2FF1201D2
:1001800006D2FF180106D2FF190306D2FF1C01BBDD
:10019000A7E81D01A6D8E31E0144CEDB1F01B696D9
:1001A000F1260106D2FF2C0106D2FF320106D2FF52
:1001B000330126FCFF380106D2FF390326FCFF3C41
:1001C00003BBA7E83D01A6D8E33E0144CEDB3F01D7
:1001D000B696F1FF0000000029001E001F0020005D
:1001E000210022000000350014001A00080015004C
:1001F000170000002B0004001600070009000A0089
:100200000000E1001D001B00060019000500280089
:10021000E000E200E3000057025101512C002D00E4
:100220002700260025002400230000002A001300D8
:1002300012000C0018001C000000280033000F0002
:100240000E000D000B000000E500520037003600E4
:10025000100011004C004F00510050000057025197
:1002600001512C0033022D003402380022022D02ED
:100270000000890223021E0238022F0089000000BC
:10028000250226023000320030023202000036021F
:10029000370287022E002F022E020100010001000A
:1002A000010000000000000001005600550054004D
:1002B000670089002E0000002A00610060005F00D6
:1002C00030002F00000058005E005D005C0032002E
:1002D00034000000E5005B005A0059008700380038
:1002E00001005700630036006200870238020100F7
:1002F0003A003B003C003D003E003F000000390258
:100300005300B200B300B100B5000000AA00A9007C
:10031000A800AE00AC00AB0000000100010001002D
:1003200001000100010001000100095D0100010060
:10033000010001000100450044004300420041006B
:100340004000000048004700460053000100010043
:1003500000004B004A0049000100010001000000BC
:100360004E004D004C0001000100010001000100A1
:100370000100010001000100010001001E001F003A
:10038000200021002200230000001E011F01200187
:1003900021012201230100001E021F02200221026E
:1003A0002202230200001E041F0420042104220450
:1003B00023042800010001000100010001000100E8
:1003C00001002E002D00270026002500240000003B
:1003D0002E012D01270126012501240100002E02F6
:1003E0002D02270226022502240200002E042D04DD
:1003F000270426042504240429000100010001002B
:1004000001000100010001000000000000000000E8
:1004100000000000000000000000000000000000DC
:1004200000000000000000000000000000000000CC
:1004300000000000000000000000000000000000BC
:10044000000000000000600000000000000000004C
:100450000000000000007C0000F0070000FC070026
:100460000080070000003F0000FE3F0000FF1F006B
:1004700000C00F0080F11F0000FF7F0000FF1F0081
:1004800000801F00C0FB1F0000FF7F0080FF3F00B7
:1004900000003F00E0FB800100FF7F0080FF3F0085
:1004A00000007F00E0FFC601801FFC00800F3E00BF
:1004B0000080FF00C0FFFF00800FF800800F3E00AB
:1004C0000080FF00E0FFFF00800FF800800F3E007B
:1004D00000807F00FC017F00800FF800800F3F004C
:1004E00000C0FF07FC007C00800FF800808F3F00F9
:1004F00000E0FF0778007800800FF80080CF3F0011
:1005000000F0CF033C00780080FFFF0080EF3F0049
:1005100000F8C1013C00700280FFFF0080FF3F0037
:1005200000FCC0003800700380FFFF0080FF3E0029
:10053000007E40001800300280FFFF00807F3E00F8
:10054000003F000018003003800FF800803F3E009D
:10055000801F00003E00F003800FF800801F3E0067
:10056000C00F00003E00F003800FF800800F3E0037
:10057000E00700003E00F800800FF800800F3E000A
:10058000F00300007C007800800FF800800F3E0030
:10059000F8010000F0003C00800FF80080FF3F00F1
:1005A000FC000000F0011F00800FF80080FF3F00FA
:1005B0007E000000F8FF1F00800FF80000FF1F0002
:1005C0003E000000C0FF0F00800FF80000FF1F007A
:1005D0001C00000080FF0700800FF80000FC0700EF
:1005E00008000000001B03000000000000000000E5
:1005F0000000000000000000FCFFFF1FFEFFFF0FD7
:10060000FFFFFF87FFFFFF0302000020FFFFFF9FA8
:10061000000000C8FFFFFF07010000C0FFFFFF7FD1
:10062000000000F0FFFFFF0F010000C0FFFFFF7F91
:10063000000006F0FFFFF90F0100E0CFFFFF0F7889
:10064000008007F0FF7FF80F0180FFCFFF3F0078A9
:1006500000C003F0FF3FFC0F81DFFFCF3F100078A9
:1006600000C003F0FF3FFC0FF9DFFFCF031000785D
:1006700000C001F0FF3FFE0FF9DFFFCF031000784D
:1006800000E000F0FF1FFF0FF9DFFFCF031000783D
:10069000800F1FF07FF0E00FF9DFFFCF031000782D
:1006A000C0FF7FF03F00800FF9DFFFCF031000781D
:1006B000E0FF7FF01F00800FF9DFFFCF031000780D
:1006C000F0FF3FF00F00C00FF9DFFFCF03100078FD
:1006D000F8FF1FF00700E00FF9DFFFCF03100078ED
:1006E000F8FF1FF00700E00F010000C0FFFFFF7FD1
:1006F000F8FF1FF00700E00FF9DFFFCF03100078CD
:10070000F8FF1FF00700E00FF9DFFFCF03100078BC
:10071000F8FF1FF00700E00FF9DFFFCF03100078AC
:10072000F8FF1FF00700E00FF9DFFFCF031000789C
:10073000F8FF3FF00700C00FF9DFFFCF031000788C
:10074000F0FF7FF00F00800FF9DFFFCF031000787C
:10075000F0FFFFF00F00000FF9DFFFCF031000786C
:10076000F0FFFFF00F00000FF9DFFFCF031000785C
:10077000E0FF7FF01F00800FC1DFFFCF1F10007868
:10078000C0FF3FF03F00C00F0180FFCFFF3F007868
:10079000C0FF3FF03F00C00F0100E0CFFFFF0F7828
:1007A00080FF1FF07F00E00F010000C0FFFFFF7F10
:1007B000000F0FF0FFF0F00F010000C0FFFFFF7F00
:1007C000000000F0FFFFFF0F02000020FFFFFF9F6F
:1007D000000000C8FFFFFF07FCFFFF1FFEFFFF0F29
:1007E000FFFFFF87FFFFFF03FCFFFF1FFEFFFF0F61
:1007F000FFFFFF87FFFFFF0302000020FFFFFF9FB7
:10080000000000C8FFFFFF07010000C0FFFFFF7FDF
:10081000000000F0FFFFFF0F01E003C0FF0FFE7FAD
:1008200000FC01F0FF01FF0F01F007C0FF07FC7F94
:1008300000FF07F07F00FC0F01F80FC0FF03F87FF7
:10084000C0FF1FF01F00F00F01F80FC0FF03F87F7B
:10085000E0033EF00FFEE00F01FC1FC0FF01F07F40
:10086000F00078F087FFC30F01FC1FC0FF01F07F8D
:100870007800F0F0C3FF870F01F80FC0FF03F87F87
:100880003800E0F0E3FF8F0F01F80FC0FF03F87F9F
:100890001C70C0F1F1C71F0F01F80FC0FF03F87FF4
:1008A0009CFFCFF13100180F01F80FC0FF03F87F54
:1008B000FEFFFFF30000000E010000C0FFFFFF7FFE
:1008C000FEFFFFF30000000E01F007C0FF07FC7FF2
:1008D000FE8FFFF30038000E01F007C0FF07FC7F1A
:1008E000FE07FFF3007C000E01F007C0FF07FC7F4E
:1008F000FE07FFF3007C000E01F007C0FF07FC7F3E
:10090000FE8FFFF30038000E010000C0FFFFFF7FE5
:100910000EFF87F378003C0E01E003C0FF0FFE7F5F
:100920001CFEC3F1F1001E0F01E003C0FF0FFE7FAC
:100930001CFCC1F1F1011F0F01E003C0FF0FFE7F9E
:1009400038F8E0F0E3838F0F01FC0FC0FF01F87F60
:1009500078F8F0F0C383870F01FE3FC0FF00E07F0F
:10096000F0F878F08783C30F01FE3FC0FF00E07FFF
:10097000E0FF3FF00F00E00FC1FFFFC11F00007F4D
:10098000C0FF1FF01F00F00FC1FFFFC11F00007F5D
:1009900000FF07F07F00FC0FC1FFFFC11F00007FB9
:1009A00000FC01F0FF01FF0F010000C0FFFFFF7F0F
:1009B000000000F0FFFFFF0F02000020FFFFFF9F7D
:1009C000000000C8FFFFFF07FCFFFF1FFEFFFF0F37
:1009D000FFFFFF87FFFFFF03FCFFFF1FFEFFFF0F6F
:1009E000FFFFFF87FFFFFF0302000020FFFFFF9FC5
:1009F000000000C8FFFFFF07010000C0FFFFFF7FEE
:100A0000000000F0FFFFFF0F010C00C0FFF3FF7FAD
:100A1000002000F0FFEFFF0F011E00C0FFE1FF7F8D
:100A2000007000F0FFC7FF0F013F00C0FFC0FF7F55
:100A300000F800F0FF83FF0F817F00C07F80FF7F01
:100A400000FC01F0FF01FF0FC1FF00C03F00FF7F6E
:100A500000FE03F0FF00FE0FE1FF01C01F00FE7F5C
:100A600000FF07F07F00FC0F013F00C0FFC0FF7FC9
:100A700080FF0FF03F00F80F013F18C0FFC0E77F75
:100A8000C0FF1FF01F00F00F013F38C0FFC0C77F3D
:100A9000E0FF3FF00F00E00F013F78C0FFC0877F0D
:100AA000F0FF7FF00700C00F013FFFC0FFC0007FD5
:100AB00000FF07F07F00FC0F01BFFFC1FF40007E79
:100AC00000FF07F07F00FC0F01BFFFC3FF40007C69
:100AD00000FF07F07F00FC0F01BFFFC1FF40007E59
:100AE00000FF07F07F00FC0F01BFFFC0FF40007F49
:100AF00000FF07F07F00FC0F01BF7FC0FF40807F39
:100B000000FF07F07F00FC0F01BF38C0FF40C77F28
:100B100000FF07F07F00FC0F013F18C0FFC0E77F18
:100B2000000000F0FFFFFF0F013F00C0FFC0FF7F8C
:100B3000000000F0FFFFFF0F013F00C0FFC0FF7F7C
:100B400000FF07F07F00FC0F013F00C0FFC0FF7FE8
:100B500000FF07F07F00FC0F013F00C0FFC0FF7FD8
:100B600000FF07F07F00FC0F013F00C0FFC0FF7FC8
:100B700000FF07F07F00FC0F013F00C0FFC0FF7FB8
:100B800000FF07F07F00FC0F013F00C0FFC0FF7FA8
:100B900000FF07F07F00FC0F010000C0FFFFFF7F98
:100BA000000000F0FFFFFF0F02000020FFFFFF9F8B
:100BB000000000C8FFFFFF07FCFFFF1FFEFFFF0F45
:100BC000FFFFFF87FFFFFF03FCFFFF1FFEFFFF0F7D
:100BD000FFFFFF87FFFFFF0302000020FFFFFF9FD3
:100BE000000000C8FFFFFF07010000C0FFFFFF7FFC
:100BF000000000F0FFFFFF0F01FF7FC07F00C07FFC
:100C0000007000F0FFC7FF0F81FFFFC03F00807F33
:100C100000F800F0FF83FF0F81FFFFC03F00807FDF
:100C200000FC01F0FF01FF0F8101C0C03FFF9F7F6B
:100C3000008E03F0FF38FE0F8101C0C03FFF9F7F91
:100C4000000707F07F7CFC0F8101C0C03FFF9F7F42
:100C5000000000F0FFFFFF0F81FFFFC03F00807F1B
:100C6000000000F0FFFFFF0F81FFFFC03F00807F0B
:100C7000000000F0FFFFFF0F81FFFFC03F00807FFB
:100C8000000000F0FFFFFF0F8131C6C03FE79C7FEF
:100C9000007000F0FFC7FF0F8131C6C03FE79C7FA7
:100CA00000F800F0FF83FF0F8131C6C03FE79C7F53
:100CB00000FC01F0FF01FF0F81FFFFC03F00807FBC
:100CC00000FC01F0FF01FF0F81FFFFC03F00807FAC
:100CD00000FC01F0FF01FF0F8131C6C03FE79C7FA0
:100CE00000F800F0FF83FF0F8131C6C03FE79C7F13
:100CF000007000F0FFC7FF0F8131C6C03FE79C7F47
:100D0000000000F0FFFFFF0F81FFFFC03F00807F6A
:100D1000000000F0FFFFFF0F81FFFFC03F00807F5A
:100D2000000000F0FFFFFF0F8131C6C03FE79C7F4E
:100D3000000000F0FFFFFF0F8131C6C03FE79C7F3E
:100D4000000707F07F7CFC0F8131C6C03FE79C7F26
:100D5000008E03F0FF38FE0F81FFFFC03F00807F51
:100D600000FC01F0FF01FF0F81FFFFC03F00807F0B
:100D700000F800F0FF83FF0F01FF7FC07F00C07FFE
:100D8000007000F0FFC7FF0F010000C0FFFFFF7FF2
:100D9000000000F0FFFFFF0F02000020FFFFFF9F99
:100DA000000000C8FFFFFF07FCFFFF1FFEFFFF0F53
:100DB000FFFFFF87FFFFFF03050403020100060793
:100DC00008090A0B11100F0E0D0C1213141516172B
:100DD000181F1E1D1C1B1A1925242322212026271B
:100DE00028292A2B31302F2E2D2C3233343536370B
:100DF000383F3E3D3C3B3A39000101010101010110
:100E000001010202020202020202020303030303BF
:100E1000030303040404040404040505050505068E
:100E2000060606060707070707080808080909094C
:100E3000090A0A0A0B0B0B0C0C0C0D0D0D0E0E0EF5
:100E40000F0F0F1010111111121213131414151586
:100E500016161717181819191A1A1B1B1C1D1D1EF8
:100E60001E1F20202122222324242526262728294C
:100E7000292A2B2C2D2D2E2F30313232333435367A
:100E80003738393A3B3C3D3E3F404142434445467A
:100E90004748494A4C4D4E4F505153545556585956
:100EA0005A5B5D5E5F616264656668696B6C6D6FFD
:100EB0007072737577787A7B7D7E80828385878870
:100EC0008A8C8E8F91939596989A9C9EA0A2A3A5AA
:100ED000A7A9ABADAFB1B3B5B7BABCBEC0C2C4C6AB
:100EE000C9CBCDCFD1D4D6D8DBDDDFE2E4E7E9EB67
:100EF000EEF0F3F5F8FAFDFF00AE00AF00DA028184
:100F00008FD9F1DB40A4A62EAF00A0C000A1C8007D
:100F1000AED580A81FD300408D14200004033000FC
:100F200000001803480065006C006900780020008C
:100F3000520065006D006900780000001A0354003B
:100F40004E004B00200053006F00660074007700D5
:100F500061007200650000000403090409023B00FF
:100F6000020100A0C80904000001030101000921D9
:100F7000110100012240000705810308000A09044D
:100F800001000103000000092111010001223200CB
:100F90000705820320000A12011001000000086505
:100FA00032000001000102030105010980A1018551
:100FB0000319012AB700150126B7009501751081A4
:100FC00000C0050C0901A101850419012AA0021520
:100FD0000126A002950175108100C005010906A136
:100FE00001050719E029E71500250195087501811C
:100FF000029501750881010507190029FF150026D2
:10100000FF00950675088100050819012905950559
:1010100075019102950175039101C00011241FBE55
:10102000CFEFDAE0DEBFCDBF04B603FE27C080916C
:10103000CD059091CE05A091CF05B091D005873018
:10104000904BA740B04BD1F41092CD051092CE0535
:101050001092CF051092D00514BE84B7877F84BF4D
:101060000FB6F894A8958091600088618093600025
:10107000109260000FBEE0E0F8E3099511E0A0E0F7
:10108000B1E0E8E7F7E602C005900D92A83CB10791
:10109000D9F725E0A8ECB1E001C01D92AD3CB20744
:1010A000E1F70E94882D0C947E330C9400000E947E
:1010B000BE134AEA60E080E00E943A1381E00C949B
:1010C000851387FD3DC06032D8F5262F26952695DD
:1010D000269590E8299F90011124820F932F911D4E
:1010E000FC01EC54FC4F50816770252F30E0062E38
:1010F00002C0359527950A94E2F72170241701F173
:1011000021E030E001C0220F6A95EAF74423C9F0DC
:10111000252B208325E0969587952A95E1F721E0F8
:1011200030E002C0220F331F8A95E2F780910D0252
:1011300090910E02822B932B90930E0280930D02BE
:10114000089520952523E5CF2F923F924F925F92ED
:101150006F927F928F929F92AF92BF92CF92DF92C7
:10116000EF92FF920F931F93CF93DF93CDB7DEB72C
:1011700068970FB6F894DEBF0FBECDBF9C878B87F4
:101180003B015E834D833A8729878F82C601019791
:101190004A01880E991EE49E9001E59E300DF49E52
:1011A000300D112469857A85269FA001279F500D57
:1011B000369F500D1124069D9001079D300D169D00
:1011C000300D1124BA01620F731F7C836B83312CA5
:1011D000212C18862FEF3FEFA301480F591F5C8B7E
:1011E0004B8BB5016C197D097E8B6D8BC501019709
:1011F000AC01460D571D588F4F8B6D817E81261691
:1012000037060CF47BC068960FB6F894DEBF0FBEAD
:10121000CDBFDF91CF911F910F91FF90EF90DF90A5
:10122000CF90BF90AF909F908F907F906F905F9086
:101230004F903F902F9008958B819C81800F911F3C
:10124000AC0197FF02C0495F5F4FBA0143E075955B
:1012500067954A95E1F77A8369832617370731F056
:10126000EB85FC85E60FF71F749178872F8122307C
:1012700089F12330B1F12130D9F574012501400EF7
:10128000511E4885242F30E068E070E00E94F13262
:1012900002C0359527958A95E2F7422F4170642D5B
:1012A0008E2D0E9461080F5F1F4F29813A8106151C
:1012B00017050CF4C1CF5FEF251A350A61E0861AD5
:1012C00091088B819C8149855A85840F951F9C8349
:1012D0008B8393CFEB88FC88E01AF10A4D845E84FF
:1012E000D0CFEF84F8884F88588C401A510AC9CF64
:1012F0007801EC0CFD1C49885A88C3CF10E000E04F
:101300006D897E89680D791D7E876D87C1018C0D81
:101310009D1D988B8F87A501420D531D5A8B498BBC
:10132000C6CFCF93FC01C081C130E9F48091C901DF
:10133000882331F00E94112A1092C901CF9108959B
:1013400083E00E94D727882321F083E0CF910C947B
:10135000182863E083E00E94012A81E00E94162A97
:10136000C093C901EBCF83E0CF910C943B280E943E
:10137000BC0F81110EC080E260E20E94F0108CEA86
:1013800090E09093E2018093E10161E080E00C94B1
:10139000C61380E0F1CFCF93C82F0E94BC0F8C13EF
:1013A00005C081E080930001CF9108958823E1F387
:1013B0008091D802CF910C94F90FCF93C82F8091D0
:1013C000D802C0FB80F98093D80280E00E94CB094C
:1013D0008091D402982F91709C17C9F0C0FB80F9BE
:1013E0008093D40281E0C8278091BE05C0FB82F9BA
:1013F000C0FB83F98093BE056091D4027091D50241
:101400008091D6029091D702CF910C94662ACF9109
:1014100008951092D4021092D5021092D602109222
:10142000D70260E070E0CB010C94662A1092D802DB
:101430000E94622A6093D4027093D5028093D602F0
:101440009093D702862F81700E94DD090E94570871
:101450000C94B709CF92DF92EF92FF926B017C015F
:1014600041E00E94C227682F81E00E94C61342E03B
:10147000C701B6010E94C227682F82E00E94C613EE
:1014800043E0C701B6010E94C227682F83E00E9493
:10149000C61381E00E94CB09C701B601FF90EF900F
:1014A000DF90CF900895811527E59207F1F0109213
:1014B000C901873E910598F4843E9105C0F4803EB1
:1014C000910598F0833E910590F08091D802FB0140
:1014D000928190FB81F98093D80280E009C0873E19
:1014E000910599F389309D4531F081E0089581E0BF
:1014F0000E94CB09FACFFB018281882371F380918E
:10150000D402809581700E94DD09E7CF9091D802C6
:1015100081FB92F980FB93F982FB94F99093D802B6
:1015200080E00E94CB0981E0089508958F92AF92E8
:10153000BF92CF92DF92EF92FF920F931F936B01B6
:101540005A017C0197FF03C023E0E20EF11CF594E1
:10155000E794F594E79464E070E00E94F132882407
:1015600083948C0120E830E04FE150E06FE170E0BF
:1015700088E094E00E94A4081F910F91FF90EF90E3
:10158000DF90CF90BF90AF908F900895CF936091F0
:10159000B0027091B1028091B2029091B30243E027
:1015A0000E94C22781114DC06091B0027091B102BA
:1015B0008091B2029091B30242E00E94C227811151
:1015C00043C06091B0027091B1028091B2029091DB
:1015D000B30241E00E94C22790E041E050E061E6A2
:1015E00070E00E94960A0E947C29C82F282F227240
:1015F00081E090E011F490E080E041E050E061E4AF
:1016000070E008960E94960A21E030E09C2F9171CC
:1016100011F430E020E041E050E061E270E0C90107
:101620000A960E94960AC47481E090E011F490E05A
:1016300080E041E050E061E070E00C96CF910C94C6
:10164000960A83E090E0C9CF82E090E0C6CFCF92C7
:10165000DF92EF92FF920F931F93CF93DF930E943D
:10166000F60F8093D80226E030E080FF02C024E02D
:1016700030E081FBCC24C0F8D12C41E050E061E6A1
:1016800070E0C601820F931F0E94960A8091D802D3
:1016900082FBEE24E0F8F12C41E050E061E470E0E0
:1016A000C7010E960E94960A8091D80283FB0027FC
:1016B00000F910E041E050E061E270E0C8014096BE
:1016C0000E94960A8091D80282958170C82F80E08E
:1016D000D82F41E050E061E070E0CE014296DF910A
:1016E000CF911F910F91FF90EF90DF90CF900C94CE
:1016F000960A0E94F60F9091C801981751F08093B6
:10170000C801109200010E94BC0F882339F00C948C
:10171000C60A809100018111F4CF08950C94270B23
:1017200081E008950C94530A08950C94940B1F9330
:10173000CF93DF9300D000D00F92CDB7DEB74983AF
:101740005A836B8330914A0289819A8131111DC07D
:101750006623B9F02223A9F00E94E728182F682FEA
:1017600089819A810E94932869817A81812F0F90C3
:101770000F900F900F900F90DF91CF911F910C94CD
:101780006B0C0E94BF28182FEFCF0E94E7286981B9
:101790007A81EDCFFC01262F4081518162817381D6
:1017A00084810C94970BCF93DF93EC0160E00E944F
:1017B000CA0BBE01DF91CF910C94950B0E942E2A8B
:1017C000811102C00E94CA2A0C946E0E0E94A919AF
:1017D0000C94710E08950C94EA0B0C94860ACF9326
:1017E000C82F0E94EB0B8C2FCF910C94ED0B08951A
:1017F0000E94DF230E94F70B2FEF84E39CE021502F
:1018000080409040E1F700C000000C94092C0F9339
:101810001F93CF93DF9300D0CDB7DEB78C0161E08B
:101820000E94CA0B9A838983B8010E940919B801E2
:10183000CE0101960E94F819811108C080E00F9036
:101840000F90DF91CF911F910F910895B801898179
:101850009A810E94920B882389F3B80189819A8129
:101860000E944F19882351F3B80189819A810E94FF
:101870001B17882319F3B80189819A810E945C178C
:101880008823E1F2B80189819A810E947F18882318
:10189000A9F2B80189819A810E943614882371F2D5
:1018A000F8018281882349F089819A818115FCE5BC
:1018B0009F0739F08F3D9C4539F0C8010E94900B7D
:1018C000BECF0E94F80BBACF0E94CA2AB7CF90E0D1
:1018D00080E008950895972F70E027E0929F600DB3
:1018E000711D1124FB0196E4899FE00DF11D112467
:1018F000EE0FFF1FE852FE4F859194910895FC0171
:10190000EE0FFF1FE854F24F859194910895CF9305
:10191000DF930E946B0C0E94930DEC01811520E572
:10192000920708F041C0811530E4930708F0B4C075
:10193000803E910518F5803C910508F09DC0883ADD
:10194000910570F4853A910508F08EC081309105BB
:10195000F9F00097E9F00497D8F4D0E0C0E018C09F
:101960008F3B9105D0F7C85AD0E0CC0FDD1FC65B86
:10197000DE4F0990D881C02DD4640AC081159042F1
:1019800058F4C11581E0D80718F4C83ED10528F7EE
:10199000CE01DF91CF910895C11590E3D90708F0EA
:1019A00071C0CE019F706AC0811525E5920758F578
:1019B000811534E5930708F09EC0811542E5940730
:1019C00050F4C11581E5D80708F469C0DC2FCC2795
:1019D000C16FD06ADDCF982F969596959E012370A2
:1019E0003327C115D34508F077C0C1E0D0E002C06D
:1019F000CC0FDD1F2A95E2F720E2929FC00111244F
:101A0000C82BD92B67C0C11589E5D807A8F4C11523
:101A100098E5D90708F074C0C11526E5D20708F08B
:101A20009CCF8C2F0E942A0EC82FD0E0DC2FCC2711
:101A3000CC27DF71D062ACCFC1153AE5D30708F4EB
:101A400064C0CE0190568115904208F086CF8D2F4C
:101A50008F710E942A0E90E0982F882788279F7107
:101A60009C012C2BE901E6CFC55AD0E0C858DE4FC7
:101A7000C881D0E0D0648CCF805C91090E947F0C3B
:101A8000EC0186CFCE019927D3FF03C0EC01D86CBF
:101A90007FCFEC01D06C7CCFDF70D06A79CFCE01E4
:101AA000E4E096958795EA95E1F783702C2F2695CB
:101AB0002695237090E2299F90011124382B8C2FBA
:101AC0008370C1E0D0E002C0CC0FDD1F8A95E2F741
:101AD000C22BD32BDC685CCFC1E0D0E002C0CC0FBE
:101AE000DD1F2A95E2F730E2939FC0011124C82B35
:101AF000D92BDA684DCFD82FCC27C46FD06A48CF06
:101B0000DC2FCC27C06FD06A43CF8C2F8F700E9400
:101B10002A0E34E0D695C7953A95E1F7CF709C2F01
:101B2000EC01D06935CF82389105B1F1B0F4813341
:101B3000910509F475C048F48932910509F469C02A
:101B40008A32910509F473C008958533910509F42B
:101B500059C08933910501F10895833E9105A9F19A
:101B600038F4803E9105F9F0823E910549F10895DF
:101B7000863E9105A9F1873E9105C9F1843E910504
:101B800019F52091BF0521FF1FC08091BE0584FD7E
:101B900014C087EE90E008952091BE052370A1F057
:101BA00080EE90E008952091BE0520FD47C0309161
:101BB000BF0530FF09C024FF44C090E080E004C0AE
:101BC0002091BE0522FDF7CF08952091BE0522FD8C
:101BD0003BC03091BF0530FDE3CF24FFF5CFEDCF03
:101BE0002091BE0523FFF0CF24FDE7CFD2CF209177
:101BF000BE0523FD2CC03091BF0531FFEECF84EE32
:101C000090E008952091BE0525FFDECF89E290E0A7
:101C100008952091BE0525FFD7CF85E390E0089574
:101C20002091BE0526FFD0CF8AE290E00895209152
:101C3000BE0526FFC9CF81E390E0089589E390E0D7
:101C4000089583EE90E0089582EE90E0089586EE88
:101C500090E008959091BE0592FF06C0282F28714C
:101C60002830F9F4877F846093FF06C0282F2871FD
:101C70002831F1F4877E84612091BF0520FF06C0E2
:101C8000382F38713830D9F4877F816021FF06C042
:101C9000282F28712831D1F4877E816194FD877EB9
:101CA0000895282F24712430F9F68B7F8860DCCFCB
:101CB000282F2471243101F78B7E8861DDCF382FE6
:101CC0003171313019F78E7F8860E0CF282F217174
:101CD000213121F78E7E8861E1CF08950C946D0E3D
:101CE00008950C94700EE82FF0E0ED51FD4F8081C7
:101CF0000895089580EA8A95F1F7089508950E945D
:101D0000DA0F809117018091170195E0811190E021
:101D10009093EE0285E0891B8093ED02A2E8B1E08A
:101D200061E070E08D91E82FE295EF70F0E041A165
:101D30008F709B0101C0220F8A95EAF7922F909530
:101D4000942391A382A1822B82A381E0A738B807B4
:101D500049F7ABE7B1E061E070E08D91E82FE295E3
:101D6000EF70F0E041A18F709B0101C0220F8A95B6
:101D7000EAF7922F9095942391A382A1822B82A3BC
:101D800081E0A238B80749F7E9EDF2E0A3EEB2E04E
:101D900083EE92E011921D928E179F07D9F785E08E
:101DA0000E94850F0E94DE0B0C94EF0F0E94BC0F67
:101DB0008823F9F08091ED0290E08D519D4F0E94B3
:101DC0002510811113C08091CA018F5F8093CA01D1
:101DD000863050F0E091ED02F0E0ED51FD4F1082C1
:101DE00011821282138214820C94E60B1092CA01A3
:101DF000FBCF8091EE0290E08D519D4F0E944810E4
:101E00000C947E0E8F929F92AF92BF92CF92DF92F0
:101E1000EF92FF920F931F93CF93DF9382E8A82E48
:101E200081E0B82E09ED12E0912CCC24C394D12C82
:101E3000F50181915F01C82FC295CF70D0E099A1C3
:101E40008F70760101C0EE0C8A95EAF7892F8E29F2
:101E500089A38AA18E2C809488218AA30E947A0E5D
:101E6000EBE7F1E050E040E020E03191A32FA295B4
:101E7000AF70B0E090968C9190E03F7002C0959565
:101E800087953A95E2F780FD3CC08C2D042E01C069
:101E9000880F0A94EAF7282B4F5F5F4F47305105B0
:101EA00021F789A1882289A28AA1E82AEAA2F80159
:101EB0008081281741F1208381E0982A0F5F1F4F0E
:101EC000F7E8AF16F1E0BF0609F0B2CF6091EE027D
:101ED00070E06D517D4F292D45E089ED92E00E9423
:101EE000860F0E94D60E892DDF91CF911F910F9101
:101EF000FF90EF90DF90CF90BF90AF909F908F902A
:101F0000089580E0C8CF80E0D8CF0895FF920F9366
:101F10001F93CF93DF93F82E092F162FD72FC42F9F
:101F2000222349F081E08093CD010E94BE2B909343
:101F3000CC018093CB018091CD018823A1F08091C9
:101F4000CB019091CC010E94D62B069760F0EF2D2B
:101F5000F02FA12FBD2FCE0FDF2FD11DEC17FD07C6
:101F600041F41092CD01DF91CF911F910F91FF901D
:101F7000089581918D93F2CF8091CE01811111C08E
:101F80008091D80080618093D8008AE18A95F1F72A
:101F900000C09091D900892F817090FF82E08093DA
:101FA000CE0181E09091CE01913009F080E008955A
:101FB0000C94BC0F0E94D80F8093170180911701D9
:101FC00060E2882349F080E00E94F0100E94BC0F7C
:101FD000882321F00C94FC0F80E2F6CF08950E9434
:101FE000BC0F811102C00C94021008958091DF0192
:101FF00008958093DF01089563E070E088E191E047
:102000000C94571E63E070E088E191E00C94601E30
:102010000E94E813882361F086ED91E00E94EE13A0
:1020200081E090E00E94391F892B11F40C94EB138E
:1020300008958091D501883039F460E086ED91E013
:102040000E9404141092D5010895CF93DF93D82FE6
:10205000C92F0E94081082E090E00E94391F892B4E
:10206000A9F490E080E00E94391F009779F4ED2FE9
:10207000FC2FDC01A053BE4F2C912193019685309B
:102080009105B9F781E0DF91CF91089580E0FBCF12
:10209000CF93DF93D82FC92F0E941910ED2FFC2F5B
:1020A00090E080E02191DC01A053BE4F2C9301967B
:1020B00085309105B9F7DF91CF910895AF92BF9226
:1020C000CF92DF92FF920F931F93CF93DF93362F20
:1020D000472FE82FF0E0E850F24F71110DC06491E6
:1020E000762F862FDF91CF911F910F91FF90DF9078
:1020F000CF90BF90AF900895C72FD0E02491F22EDB
:10210000022F10E056E0659FC0011124EFEFF0E0D0
:10211000BF010E94DD32832F90E0880F991F35E5C3
:10212000369FD001379FB00D11248A1B9B0B982F2F
:10213000990F980F6F01CC1ADD0AC09ED001C19E85
:10214000B00DD09EB00D11248B2F949FA0011124AF
:10215000452F55276F01C41AD50AC09EA001C19E04
:10216000500DD09E500D11245F01A91AB108AC9EEC
:102170006001AD9ED00CBC9ED00C1124CD2CDD2472
:10218000EC19FD09E09FE001E19FD00DF09FD00D1B
:102190001124ED2F62307105A1F048F4611571052D
:1021A00069F06130710589F0EB2F852F07C064302D
:1021B000710571F088F066307105B1F76E2F722FDE
:1021C00091CFE22F2B2F8D2FF9CFE22F252FF6CF96
:1021D000EB2F822F2D2FF2CF2B2F8F2DE52FEECF30
:1021E000E0E3F1E0808361830895CF93DF93762F5E
:1021F000E901682F842F0E945E10798368838A83A7
:10220000DF91CF910895443208F043E20C94F51029
:102210008091EF02982F9E7F71F48091EF02817080
:1022200082608093EF028091F202843218F083E2A0
:102230008093F2020895843080F7F5CF88E090E033
:102240000C943E33CF92DF92EF92FF926B017C01B0
:102250000E940811B701A60188E090E0FF90EF907E
:10226000DF90CF900C945C33EFEEF2E083E080835C
:1022700011828FEF828383E283831482A4EEB1E024
:1022800012968C911297836012968C936081718163
:10229000828193810C9422118091F302833018F48F
:1022A0008F5F8093F3026091EF027091F002809152
:1022B000F1029091F2020C9422118091F302882392
:1022C00019F081508093F3026091EF027091F00257
:1022D0008091F1029091F2020C94221121E030E001
:1022E00001C0220F8A95EAF79091E701922381E0DD
:1022F00009F480E0089570E00C948D146F927F9241
:102300008F929F92AF92BF92CF92DF92EF92FF9205
:102310000F931F93CF93DF93CDB7DEB7C05CD10986
:102320000FB6F894DEBF0FBECDBF70903101909113
:10233000EF0290FF47C0C090E101D090E201C114CC
:10234000D10409F052C0E8EBFDE09E012F5F3F4F42
:10235000BE016F537F4FC901A4914A2F50E0DA01AB
:10236000AA0FBB1FA40FB51FAC50BD4FCD90DD9081
:10237000EC90D901CD92DD92ED929D0131966A17D4
:102380007B0751F720913001672DB3E02B9F800D23
:10239000911D11240E947B11C054DF4F0FB6F89499
:1023A000DEBF0FBECDBFDF91CF911F910F91FF9088
:1023B000EF90DF90CF90BF90AF909F908F907F90E5
:1023C0006F900895809132012091330133E0839F13
:1023D000F0011124EC50FD4F821708F0ACCF1182B0
:1023E000108212828F5F3396F7CF90FFACCFF12C23
:1023F000E12C43E0642E8E2D0E946E11882309F497
:102400003CC0F701EE0FFF1FEC0DFD1DA590B49031
:10241000A114B10409F497CF45E050E0B501CE0115
:1024200001960E942D3309810F3F39F18A81800F77
:102430009927991F8134910514F080E490E04C01B4
:10244000880C991C880D991DDC01AC50BD4F4D01C5
:10245000069D800111240C501D4F0815190520F010
:10246000B5E0AB0EB11CD8CF98014D816C818B814A
:102470000E9403110D5F1F4FF0CF2FEFE21AF20AF7
:1024800038E0E316F10409F0B6CF5DCFEFEEF2E0ED
:1024900080818E7F808360817181828193810E949F
:1024A0002211E4EEF1E08281816082832FEF80E7E8
:1024B00092E0215080409040E1F700C000000C9471
:1024C0007E11EFEEF2E080818E7F8083E4EEF1E01A
:1024D0008281816082832FEF80E792E021508040EB
:1024E0009040E1F700C000000C947E119091EF0243
:1024F00090FF14C0909132012091330133E0939FFB
:10250000F0011124EC50FD4F921710F00C947E1145
:102510008183608342839F5F3396F6CF0895EF9265
:10252000FF920F931F93CF93DF9300D00F92CDB7FD
:10253000DEB7F82E062F142FE22E8091EF0280FFD7
:1025400039C0E82FE695F0E0E457FE4F9081909374
:10255000E4018E7F823059F49E012F5F3F4F8F2D13
:102560000E9403114B8169818A810E9476128091B9
:10257000F0028F1108C08091F102801304C0809195
:10258000F202811729F08091E60182608093E601D2
:10259000F092F0020093F1021093F202EE2051F05B
:1025A0006091EF027091F0028091F1029091F2023D
:1025B0000E9422110F900F900F90DF91CF911F91E9
:1025C0000F91FF90EF900895EFEEF2E09181282FA8
:1025D0004381628188E0890F0C948F1281E00C9412
:1025E000E412EFEEF2E09181282F4381628188EFBF
:1025F000890F0C948F1281E00C94F112EFEEF2E04F
:10260000628121E1620F08F46FEF282F43818181FD
:102610000C948F1281E00C94FE12EFEEF2E06281D6
:1026200021E1621B08F460E0282F438181810C9432
:102630008F1281E00C940D13EFEEF2E0438121E163
:10264000420F08F44FEF282F628181810C948F1282
:1026500081E00C941C13EFEEF2E0438121E1421B78
:1026600008F440E0282F628181810C948F1281E070
:102670000C942B1320E00C948F128091EF0280FFBA
:102680001DC0817082608093EF028091E6018160BD
:102690008093E601662351F06091EF027091F002A1
:1026A0008091F1029091F2020E9422114091F20277
:1026B0006091F1028091F0020C943A130895682F12
:1026C00081E00C943D1381E00C945F13682F90918E
:1026D000EF0296958FEF890F09F481E00C943D137A
:1026E00081E00C94661361E00C943D13EFEEF2E090
:1026F00080818160808386950C9473138091EF02B2
:1027000080FD0C9446120C94761360E00C943D13FB
:102710008091E301811131C00E942E2A811104C0F1
:102720000E94CA2A0E9434110E941E116093EF0277
:102730007093F0028093F1029093F2028091E6018F
:1027400083608093E6016E7F61F40E9434110E94E1
:102750001E116093EF027093F0028093F102909348
:10276000F2020E9408118091EF0280FF03C086955B
:102770000E94851381E08093E3010895EFEEF2E07B
:1027800080818160808386950C94851321E030E000
:10279000A90102C0440F551F8A95E2F7CA01209192
:1027A000E701662389F0822B8093E7018091E6019F
:1027B00080618093E6018091E501811108C08091DC
:1027C000EF0286950C94851380958223EDCF0895B2
:1027D0008091E60108951092E601089525E0EFEE5C
:1027E000F2E0DC0101900D922A95E1F74091E401BD
:1027F0005091E5016091E6017091E701FC0145838C
:1028000056836783708708951F93CF93DF93EC01FE
:10281000162F8F8184FF03C098859093E70180FF76
:102820000DC0888180FF16C08091EF028160809387
:10283000EF028881612F86950E943D138F8181FF71
:102840000CC0212F4B816A818981DF91CF911F912B
:102850000C948F120E946112F1CFDF91CF911F91E2
:102860000895FA01811101C0FB0109941F93CF93D0
:10287000DF93EC01FB011281111110C00E947C2931
:102880008272FE01E25CFC45E431F10508F043C0D0
:10289000E058FC4C0C9405330E947E13812FDF918D
:1028A000CF911F91089540E753E163E673E10E94E1
:1028B0003114F4CF43E653E160E773E1F8CF4BEF17
:1028C00052E16EEE72E1F3CF4EEE52E16BEF72E148
:1028D000EECF49E153E16AE073E1E9CF4AE053E129
:1028E00069E173E1E4CF47E353E168E273E1DFCFED
:1028F00048E253E167E373E1DACF4DE551E16CE47F
:1029000071E1D5CF4CE451E16DE571E1D0CF81E0CB
:102910000E947313C3CF11E0C1CF539A4BB1477FCD
:102920005BB15860EFB7F8949B01220F331F260F5D
:10293000371F280F391F2817390741F4EFBF8FE5DC
:1029400094E00197F1F700C000000895DC016D915B
:10295000CD0178E05BB9000000C067FF4BB9660F9E
:10296000000000C000C000C04BB900C07A9591F7CC
:10297000E2CFCF92DF92EF92FF920F931F93CF930C
:10298000DF936C017B0164E670E088E70E94111D13
:10299000EC0197FD12C010E000E0F601E00FF11F1E
:1029A000849164E670E00E946D1DEC01892B29F48E
:1029B0000F5F1F4F0E151F0581F70E94F01DCE01FE
:1029C000DF91CF911F910F91FF90EF90DF90CF900B
:1029D0000895E4EBF3E080E092E0DF019C011D92BA
:1029E00021503040E1F7F093B905E093B8058FEF3F
:1029F0009FEF90930E0280930D0208950E94950A16
:102A00008093090280FD0FC080E8809308020E9435
:102A10000B1D6DE070E08FE09FE00E94B914892BE0
:102A200021F080E0089580E2F0CF8091090263E018
:102A300070E081FD26C08CE09FE00E94B914892BD4
:102A400081F76DE070E08CEF9EE00E94B914892B55
:102A500041F70E94CA2B68577C4E8F4F9F4F60935F
:102A6000B4057093B5058093B6059093B7050E94A1
:102A7000E91481E080930C0280930B0210920A0209
:102A8000089589E09FE0D9CF2091080236E0839F26
:102A9000C0011124629F800D911D1124811522E037
:102AA000920714F090E080E08C549C4F9093B9050D
:102AB0008093B80508950E94CA2B68577C4E8F4FAB
:102AC0009F4F6093B4057093B5058093B6059093BE
:102AD000B70580910B02811108C062E070E08AEFB7
:102AE0009EE00E94B914892B19F080910B02089581
:102AF00081E080930B02F9CF2F923F925F926F9209
:102B00007F928F929F92AF92BF92CF92DF92EF927D
:102B1000FF920F931F93CF93DF9320910D0230917B
:102B20000E022115310531F080910A0261E070E05A
:102B3000882399F0DF91CF911F910F91FF90EF9033
:102B4000DF90CF90BF90AF909F908F907F906F90CD
:102B50005F903F902F9008958F5F082F10E01B012A
:102B6000082E02C0220C331C0A94E2F7A101422372
:102B70005323452B89F39091090290FD44C082951F
:102B8000880F807680933701980136952795369582
:102B9000279520933A01815E8093380110923B0182
:102BA00024E630E047E050E065E371E088E70E940A
:102BB0009C1D892B09F0BECFA80125E0440F551FAD
:102BC0002A95E1F78091090280FD2BC04C545C4F9F
:102BD00004E610E020E230E060E488E70E94C31DD4
:102BE000892B09F0A7CF0E945B15E101C095D09514
:102BF00080910D0290910E02C823D923D0930E022A
:102C0000C0930D0297CF880F880F880F80933701EC
:102C100010923A01895F8093380183E080933B01F1
:102C2000BFCFE8EEF1E080E2DF011D928A95E9F77F
:102C3000A2E9B1E00EE811E086E9C82E81E0D82EC5
:102C400097E0592E772473948D91E80129918E0194
:102C5000240F352F311D2C543C4FE82FF0E0E85164
:102C6000FE4F90E080E0652C681A872C082E01C08A
:102C7000880C0A94EAF77901A12CE701B9907E014A
:102C8000B820662D6A196770962E062E000C770BF9
:102C9000DB2D01C0DD0F9A94EAF7719561957109FA
:102CA0006770772701C0B6946A95EAF7BD2A6081FC
:102CB000962E9B289082A39468E0A612DECF019600
:102CC00031968830910579F6CA16DB0609F0BCCF3B
:102CD00004E610E020E230E048EE51E07DCF809144
:102CE0000B02882369F062E070E088EF9EE00E94AA
:102CF000B914892B19F080910B02089510920B02E0
:102D000080910B0291E0892708950F931F93809182
:102D10000C02882301F160E080E00E9444150E94CB
:102D2000790B0E947C1580910B028823A1F00E94F0
:102D3000CA2B0091B4051091B5052091B6053091CC
:102D4000B705601B710B820B930B97FD04C01F919D
:102D50000F910C946F161F910F9108950F931F936D
:102D6000CF93DF93C62FD42F022FFC0182818823BB
:102D7000C9F0609311020E94BE2B909310028093C1
:102D80000F0280E28C0F883008F050C0C77081E0DD
:102D900001C0880FCA95EAF7DF91CF911F910F917B
:102DA0000C94722110911102161335C080910F02FC
:102DB000909110020E94D62B883C910560F5C0E2EC
:102DC000CD0F1D17B9F080E2810F883040F41770E5
:102DD00081E001C0880F1A95EAF70E947921C83076
:102DE00048F481E09D2F977001C0880F9A95EAF70B
:102DF0000E947221802F0E945F21C830B8F4D770E2
:102E000081E001C0880FDA95EAF7DF91CF911F9139
:102E10000F910C94792180E28C0F883038F4C770C0
:102E200081E001C0880FCA95EAF7EFCFDF91CF911B
:102E30001F910F9108959C01CB01243F4CE534076D
:102E400031F190F4283DFCE53F07E9F0293D4CE5E0
:102E5000340769F1273D3C4579F426E241EE61EE05
:102E60000E94AE1680E00895263FFCE53F07B9F0CA
:102E700090F0273F3C45B9F0FC0182818823D1F0D6
:102E800010921102089527E245EE65EEE9CF26E2A1
:102E900041EE60EEE5CF27E245EE64EEE1CF26E2BB
:102EA00041EE62EEDDCF27E245EE66EED9CF28E2B5
:102EB00041E0EBCF81E00895CF93DF93EC01FB017C
:102EC0008281882309F419C1C230FCE5DF07C0F113
:102ED000C6319CE5D90730F09E012B5F3C45293077
:102EE000310570F50E94412A9093BF058093BE057D
:102EF000C031ECE5DE0709F4CFC008F05BC0C83094
:102F00008CE5D80709F4B6C088F5C430ECE5DE07D7
:102F100009F4A8C0C0F4C2308CE5D80709F49CC0FD
:102F20008091BE058260C330DC4509F498C0809171
:102F3000BE059091BF050E944F2A0E94DF2380E0CA
:102F4000DF91CF9108958091BE058061C630ECE598
:102F5000DE0709F484C08091BE058860C730DC4577
:102F600008F47DC08091BE05806279C0CC308CE5CC
:102F7000D80709F489C070F48091BE058C60CA300E
:102F8000ECE5DE0709F46BC008F478C08091BE055B
:102F90008E7F65C0CE308CE5D80709F479C080916A
:102FA000BE058B7FCF30DC4508F459C08091BE054B
:102FB0008F7E55C0CC3FECE5DE0709F457C030F5F5
:102FC000C3318CE5D80709F46FC078F4C131ECE562
:102FD000DE0709F465C0C231DC4509F0A8CF0E94C4
:102FE000DF238091BE058F773AC0C5318CE5D807C5
:102FF00009F462C008F476C08091BF058160CB3FC0
:10300000DC4509F094CF8093BF0591CFC115FDE554
:10301000DF0709F44DC088F48091BF058D7FCE3F56
:103020009CE5D90781F38091BF058E7FCF3FDC45BA
:1030300050F38091BF058360E6CFC230FDE5DF0726
:1030400009F459C008F444C080E0C330DD4509F0FC
:103050006ECF0E94CC2A6BCF8091BE058160809399
:10306000BE0565CF8091BE058460F9CF8091BF0514
:103070008260C9CF8091BE058064F1CF0E94DF23BA
:103080008091BE058068EBCF8091BE058D7FE7CF34
:103090008091BE05877FE3CF8091BE058F7DDFCF16
:1030A0008091BE058F7BDBCF8091BE05837FD7CF1C
:1030B0008091BF058C7FA7CF8091BE0582FB9927A9
:1030C00090F921E0922790FB82F990FB83F9C7CF1A
:1030D0008091BF05982F909591708E7F892B90FBE2
:1030E00081F991CF0E94DF239091BE05892F97FB34
:1030F00087F98058B4CF81E0ACCF81E021CFCF9366
:10310000DF93EB0186319C4511F50E947C299A8161
:10311000992399F08A7A91E009F490E09093120251
:10312000811109C089E20E9457290E94CB2980E0C1
:10313000DF91CF91089585E3F6CF8091120281113E
:1031400004C089E20E945E29F0CF85E3FBCF81E0D5
:10315000EFCFCF93DF93EC0181E0898B8F810E94C9
:103160007F2988850E9492290E94CB29EA81FB81D0
:10317000309739F06C897D89CE010696DF91CF9129
:103180000994DF91CF910895EF92FF920F931F93CF
:10319000CF93DF93EC018A85811134C0EB80FC80F2
:1031A00087E5F81A26E12E9DC0012F9D900D112470
:1031B000DC01AF5FBE4F1496ED91FC9115973097EF
:1031C00031F054966D917C91895F9E4F099586E10F
:1031D0008E9D80018F9D100D11240F5F1E4FF801F1
:1031E00087810E948529F80180850E9498290E9484
:1031F000CB29188219861B861E821D82109214020A
:1032000010921302DF91CF911F910F91FF90EF90D9
:103210000895DF92EF92FF920F931F93CF93DF9366
:103220007C01FB018281882391F080913C018F3FDA
:1032300071F0C1E0D1E010E000E0DD24D394809192
:103240003C01082E000C990B8017910744F4DF9184
:10325000CF911F910F91FF90EF90DF9008958E8195
:103260008823C9F089859A858E159F0539F4809148
:103270001302909114028E159F0569F0DF86FC867B
:10328000EB868989811103C0CE010E94A918CE0165
:1032900006960E94C4180F5F1F4F6696D0CFEF921C
:1032A000FF920F931F93CF93DF937C0197558F3F2E
:1032B000910509F0D8F520913C01022E000C330B4A
:1032C0002817390714F480933C01FB01228136E171
:1032D000389F8001399F100D1124E801CF5FDE4F28
:1032E000288B92818E81992349F1FA86E9868F5F36
:1032F0008E830E94BE2B9E878D870E94B2298F836A
:103300000E947C2988870E948F299885892B88872D
:10331000E881F981309731F06C897D89C801895F36
:103320009E4F0995F0921402E092130281E0DF9122
:10333000CF911F910F91FF90EF9008958823B1F3E3
:103340008989882399F3C801895F9E4F0E94C41818
:10335000EDCFEF92FF920F931F93CF93DF93809166
:103360003C0110E006E18F3FC1F5DF91CF911F9145
:103370000F91FF90EF900895029FF001039FF00DD1
:103380001124EF5FFE4FE288F388E114F10419F491
:1033900088ECE82EF12C029FE001039FD00D112450
:1033A000CF5FDE4F8E818823B9F08D859E850E9488
:1033B000D62BE816F90680F4109F70011124898934
:1033C000811105C0C7018F5F9E4F0E94A918C701D8
:1033D000895F9E4F0E94C4181F5F212F30E08091AB
:1033E0003C01082E000C990B821793072CF6BDCFD9
:1033F0004F925F926F927F928F929F92AF92BF9205
:10340000CF92DF92EF92FF920F931F93CF93DF93B0
:10341000EC01E881F981CF01815095458F3F9105FD
:1034200010F485E5F827DB0112964C90442009F44E
:103430006AC2EF3FF10509F100F1EE3DFC4521F0D4
:1034400010921502A42D07C08091150291E08927E2
:1034500080931502A0E08A2FDF91CF911F910F91E9
:10346000FF90EF90DF90CF90BF90AF909F908F90A4
:103470007F906F905F904F900895A0911502AA23BE
:1034800009F4E9C010921502E03CF105F0F5E038CE
:10349000F10508F0AAC0E034F10508F070C021E0A1
:1034A00030E040E050E060E070E080E090E00E2F1F
:1034B0000E940B33B09116022B2BB09117023B2BBD
:1034C000B09118024B2BB09119025B2BB0911A02EC
:1034D0006B2BB0911B027B2BB0911C028B2BB091FC
:1034E0001D029B2B20931602309317024093180263
:1034F0005093190260931A0270931B0280931C026E
:1035000090931D02F983E883A6CFEF3FF10509F000
:1035100030F621E030E040E050E060E070E080E034
:1035200090E08F01005C11090E940B33B0912E02D4
:103530002B2BB0912F023B2BB09130024B2BB09133
:1035400031025B2BB09132026B2BB09133027B2B9B
:10355000B09134028B2BB09135029B2B20932E021D
:1035600030932F0240933002509331026093320225
:10357000709333028093340290933502C3CF21E0DD
:1035800030E040E050E060E070E080E090E08F01EB
:10359000005411090E940B33B0911E022B2BB091E5
:1035A0001F023B2BB09120024B2BB09121025B2BD1
:1035B000B09122026B2BB09123027B2BB09124029D
:1035C0008B2BB09125029B2B20931E0230931F0260
:1035D00040932002509321026093220270932302B1
:1035E00080932402909325028DCF21E030E040E0CB
:1035F00050E060E070E080E090E08F010058110939
:103600000E940B33B09126022B2BB09127023B2B4B
:10361000B09128024B2BB09129025B2BB0912A026A
:103620006B2BB0912B027B2BB0912C028B2BB0918A
:103630002D029B2B209326023093270240932802D1
:103640005093290260932A0270932B0280932C02DC
:1036500090932D0257CFE034F10508F06BC07090C5
:1036600016028090170290901802D0911902C09112
:103670001A02B0911B0250901C0260901D0221E0C2
:1036800030E040E050E060E070E080E090E00E2F3D
:103690000E940B3359016A017B018C01272D2A21DD
:1036A000382D3B21492D4C215D2F5D216C2F6E2142
:1036B0007B2F7F21852D8023962D91230E942433FB
:1036C00009F0C0CEE03CF10508F08EC0E038F1050D
:1036D00008F0EBC0E034F10508F0B9C021E030E0BB
:1036E00040E050E060E070E080E090E00E2F0E944B
:1036F0000B33209530954095509560957095809549
:1037000090952721382149215D236C237B23852136
:10371000962120931602309317024093180250937B
:10372000190260931A0270931B0280931C029093FB
:103730001D0291CEE038F105E0F470901E028090F9
:103740001F0290902002D0912102C0912202B091DC
:103750002302509024026090250221E030E040E0F6
:1037600050E060E070E080E090E08F0100541109CB
:103770008FCFE03CF105E0F47090260280902702A4
:1037800090902802D0912902C0912A02B0912B0278
:1037900050902C0260902D0221E030E040E050E09B
:1037A00060E070E080E090E08F010058110970CF78
:1037B00070902E0280902F0290903002D0913102B2
:1037C000C0913202B09133025090340260903502C1
:1037D00021E030E040E050E060E070E080E090E028
:1037E0008F01005C110954CFEF3FF10511F008F093
:1037F00075CF8F01005C110921E030E040E050E01E
:1038000060E070E080E090E00E940B3320953095FE
:103810004095509560957095809590952721382119
:1038200049215D236C237B238521962120932E0241
:1038300030932F0240933002509331026093320252
:1038400070933302809334029093350204CE8F013B
:103850000054110921E030E040E050E060E070E009
:1038600080E090E00E940B33209530954095509574
:1038700060957095809590952721382149215D2389
:103880006C237B238521962120931E0230931F02F7
:1038900040932002509321026093220270932302EE
:1038A0008093240290932502D6CD8F0100581109F0
:1038B00021E030E040E050E060E070E080E090E047
:1038C0000E940B33209530954095509560957095EA
:1038D000809590952721382149215D236C237B23F6
:1038E00085219621209326023093270240932802B7
:1038F0005093290260932A0270932B0280932C022A
:1039000090932D02A8CDA1E0EF3FF10509F0B8F5A5
:10391000E034F105B0F58090160290901702D09136
:103920001802C0911902B0911A02A0911B02609076
:103930001C0270901D0221E030E040E050E060E0A9
:1039400070E080E090E00E2F0E940B3359016A0175
:103950007B018C01282D2A21392D3B214D2F4C2113
:103960005C2F5D216B2F6E217A2F7F21A1E0862DA8
:103970008023972D91230E94243309F4A0E0A170A5
:103980006ACDE038F105E0F480901E0290901F02AD
:10399000D0912002C0912102B0912202A091230275
:1039A00060902402709025028F010054110921E0DB
:1039B00030E040E050E060E070E080E090E0C4CFB4
:1039C000E03CF105A0F48090260290902702D0916F
:1039D0002802C0912902B0912A02A0912B02609086
:1039E0002C0270902D028F0100581109E0CF8090B9
:1039F0002E0290902F02D0913002C0913102B091EE
:103A00003202A091330260903402709035028F012F
:103A1000005C1109CCCF1092B9008CE08093B80003
:103A20000895EF92FF920F931F93CF93DF93182F78
:103A3000EB011092BC0084EA8093BC000E94BE2B74
:103A40007C018091BC0087FF27C08091B900887FEE
:103A5000883029F08091B900887F8031D9F51093A2
:103A6000BB0084E88093BC000E94BE2B8C01809137
:103A7000BC0087FF24C02091B900287F90E080E03F
:103A80002831B1F081E090E0203411F490E080E042
:103A90009195819591090CC0CF3FDC0791F20E946E
:103AA000BE2B8E199F098C179D0758F28EEF9FEF42
:103AB000DF91CF911F910F91FF90EF900895CF3F2D
:103AC000DC07A9F20E94BE2B801B910B8C179D076F
:103AD00070F2ECCF8FEF9FEFEBCF0F931F93CF934D
:103AE000DF93EB018093BB0084E88093BC000E94CD
:103AF000BE2B8C018091BC0087FF11C02091B900C2
:103B0000287F81E090E0283211F490E080E09195E8
:103B100081959109DF91CF911F910F910895CF3F2A
:103B2000DC0741F30E94BE2B801B910B8C179D0775
:103B300008F38EEF9FEFEECFCF92DF92EF92FF92DE
:103B40000F931F93CF93DF936B018A017901B90122
:103B50000E94111DE6010C0D1D1DC017D10761F457
:103B600024E92093BC00DF91CF911F910F91FF902A
:103B7000EF90DF90CF90089597FDF2CFB701899134
:103B80000E946D1DEACFCF92DF92EF92FF920F93CA
:103B90001F93CF93DF93C62F6A017901B8010E946A
:103BA000111D97FD0CC0B8018C2F0E946D1DE60100
:103BB000EC0CFD1CCE15DF0511F097FF0CC024E9BD
:103BC0002093BC00DF91CF911F910F91FF90EF9058
:103BD000DF90CF900895B80189910E946D1DEACFC2
:103BE00084E98093BC0008958EE14A9B02C0815015
:103BF000E1F74A9BFECF08955A9880E28A95F1F743
:103C00005A9A0895FC013BE03A95F1F720E090E0E4
:103C100080E031E040E14A95F1F7880F4A9B02C00D
:103C20008160232742E04A95F1F7000040E14A9580
:103C3000F1F79F5F6913EECF90E19A95F1F799B193
:103C400032E03A95F1F7000040E14A95F1F792FB36
:103C5000992790F992272081920F90830895EF92EF
:103C6000FF920F931F93CF93DF930F92CDB7DEB7E1
:103C700019828C017C01E60EF11C0E151F0561F402
:103C800081E09981911180E00F90DF91CF911F9198
:103C90000F91FF90EF9008950E94F41D68E0CE010F
:103CA00001960E94021EF80181938F01E6CF909346
:103CB00038028093370260933602529A5A9A0895D6
:103CC00090933802809337026093360252985A9A42
:103CD000EA9AE9E6F0E080818F7C80830895615064
:103CE000770B91E001C0990F6A95EAF720E031E087
:103CF000911108C0222391F05A9A80E28A95F1F737
:103D00005A980895492F482339F05A9A232740E2B8
:103D10004A95F1F79695ECCF5A98F9CF5A98EDCF8E
:103D2000FF920F931F93CF93DF93EC018C01060F4B
:103D3000111DC017D10731F4DF91CF911F910F9161
:103D4000FF900895F9900E94FC1D68E08F2D0E945D
:103D50006F1EEFCF1F920F920FB60F9211240F9389
:103D60001F932F933F934F935F936F937F938F9303
:103D70009F93AF93BF93EF93FF93CF93DF930F92F4
:103D8000CDB7DEB719820E94F41D67E0CE0101961F
:103D90000E94021E082F069506950695982F92956B
:103DA0009570202F2570920F292F23709695969548
:103DB0008770920F891344C08981811141C080911D
:103DC00036028017E8F120E12A95F1F75A9A529AC3
:103DD00082E08A95F1F700C0A8E00A9FC001112493
:103DE0000091370210913802080F191F5A98F801F4
:103DF0006581662321F0868197810E94901E0E9432
:103E0000FC1DF0E1FA95F1F75A9852985A9A20E180
:103E10002A95F1F7D80112966C911297662331F129
:103E200013968D919C910E942F1ED801ED91FC91CB
:103E3000882311F088E001C082E080830E94F41D95
:103E40000F90DF91CF91FF91EF91BF91AF919F9133
:103E50008F917F916F915F914F913F912F911F9122
:103E60000F910F900FBE0F901F901895ED91FC9140
:103E7000E1CF0F931F93CF93DF9320913602281742
:103E800019060CF471C08C0193E0000F111F9A9574
:103E9000E1F7C0913702D0913802C00FD11FF894DA
:103EA000529A5A9825E02A95F1F70000982F969596
:103EB00095708570980F892F837096959695980FB9
:103EC000092B0E94FC1D00C067E0802F0E946F1E1E
:103ED00080E18A95F1F752985A9A4A9B17C087E079
:103EE00090E04A9915C06D81662321F18E819F81F2
:103EF0000E942F1E81111EC0529A5A9AE881F981A0
:103F000082E08083789482E090E00DC000C0E5CF2D
:103F1000019771F4529A5A9AE881F98181E080837D
:103F2000789481E090E0DF91CF911F910F910895F7
:103F300000C0D7CF0E94F41D20E22A95F1F75A98CD
:103F4000529A80E18A95F1F76A81662321F08B818C
:103F50009C810E94901E0E94FC1DE881F9811082C4
:103F6000789490E080E0DFCF84E090E0DCCF909325
:103F70003E0280933D020895E0913D02F0913E02A1
:103F8000309721F00190F081E02D099480E00895B0
:103F9000E0913D02F0913E02309721F00280F381E2
:103FA000E02D0994089520913B0230913C0228179E
:103FB000390771F090933C0280933B02E0913D02FF
:103FC000F0913E02309721F00680F781E02D0994B0
:103FD00008952091390230913A022817390771F07B
:103FE00090933A0280933902E0913D02F0913E02B3
:103FF000309721F00084F185E02D0994089585B76C
:10400000806885BF85B7806885BF08950895089545
:104010000C9406200C94160A0E94FF1F0E94072091
:104020000C9408200C94BC0F0E94B52B0E947F0EAC
:1040300080E00E94FE140E941A2C0E9488130C94A7
:104040000A209F92AF92BF92CF92DF92EF92FF929F
:104050000F931F93CF93DF93CDB7DEB72A970FB699
:10406000F894DEBF0FBECDBF0E94020FC82E0E9483
:104070001220882309F463C080E4A82E82E0B82EC1
:1040800010E000E0902E802F0E94730EE82EF501C4
:10409000D1905F01D81609F44CC08091C50281FD12
:1040A0000E94790E80E0FF24F394DE249D2D9F2151
:1040B000D9F18E839F82EF2081E009F480E0888728
:1040C0000E94BE2B8160782F9A8789874E815F81FD
:1040D00068858A850E94C220F801E05CFD4F8081DE
:1040E000F826F0820E948516C1100E945B150E947E
:1040F000BC1F90913F02891799F10E94BC1F8093C9
:104100003F022A960FB6F894DEBF0FBECDBFDF91F7
:10411000CF911F910F91FF90EF90DF90CF90BF90C4
:10412000AF909F900C94EF0B8F5FFF0C873009F0DE
:10413000BDCF0F5F1F4F0A30110509F0A3CF8FEFDE
:1041400089838A831B820E94BE2B8160782F9D8386
:104150008C8349815A816B818D810E94C220C2CF9C
:104160002A960FB6F894DEBF0FBECDBFDF91CF9178
:104170001F910F91FF90EF90DF90CF90BF90AF9085
:104180009F900895CF93DF93CDB7DEB72B970FB6EF
:10419000F894DEBF0FBECDBF4F83588769877A87FB
:1041A0008B871E821D8285E0FE013796DE01119607
:1041B00001900D928A95E1F749815A816B817C814A
:1041C0008D819E812B960FB6F894DEBF0FBECDBFBA
:1041D000DF91CF910C945526FC01808191810C9444
:1041E0002929CF93C82F882309F43FC08CEF8C0F67
:1041F000813AA0F46C2F80913D0190913E010E9484
:10420000E32A882329F08C2F0E945E290E94CB2963
:104210008C2F0E945729CF910C94CB2980E28C0FD0
:10422000883048F4C77081E001C0880FCA95EAF76A
:104230000E947F29F0CFEBE5EC0FE33040F4F0E093
:10424000EC53FE4F808190E0CF910C94D31FC85A5D
:10425000C73158F4EC2FF0E0EE0FFF1FEA56FE4F87
:1042600080819181CF910C94E91FCF91089588238B
:1042700029F19CEF980F913A20F40E945E290C944A
:10428000CB2990E2980F983050F4877091E001C0EC
:10429000990F8A95EAF7892F0E948529F0CF9BE52F
:1042A000980F933020F490E080E00C94D31F885A4C
:1042B000873120F490E080E00C94E91F0895CF93BB
:1042C000C82F0E94F120C93349F42FEF87EE93E005
:1042D000215080409040E1F700C000008C2FCF912A
:1042E0000C943721882321F00E947F290C94CB293C
:1042F0000895882321F00E9485290C94CB290895E4
:10430000BF92CF92DF92EF92FF920F931F93CF93C2
:10431000DF936C01D62FC72FFC01058102950F702A
:10432000128111110E949F290E947529E82E88236D
:1043300091F01123D1F08C2F807F803421F080E226
:104340008D0F883090F082E00E94162A0E94752915
:1043500091E0E82EE926BC2EB2949FE0B922EB2D25
:10436000F0E0EC56FC4C0C940533E12CF4CF0C2F10
:104370000F70C07F11F00295007F1123A9F0002378
:1043800059F080E28D0F883010F0D11109C0802FD4
:104390000E947F290E94CB298D2F0E94F12014C0FA
:1043A000802F0E949229F6CF8D2F0E943721002363
:1043B00059F080E28D0F883010F0D1112CC0802F81
:1043C0000E9485290E94CB292B2D2850330B2430A5
:1043D000310520F40E94BC1F0E94EF0BEE2009F46F
:1043E00093C10E94712980FD8FC1F60112820E9443
:1043F0006B290E94F727C6010E94A5230E946B2902
:10440000DF91CF911F910F91FF90EF90DF90CF90B0
:10441000BF900C941828802F0E949829D3CFFC2F8E
:10442000FF70FF2EC07FC03219F0F29480EFF822A7
:10443000DD2369F0D13049F1112391F1002351F1CD
:10444000F601858180FFA8CF8F70858323C011235B
:1044500081F0011106C00E94B2298F290E947221A9
:10446000B3CF0130C1F70E94B2298F290E94B82929
:10447000ABCF011106C00E94C1298F2D0E94792166
:10448000A3CF013009F4A0CFF6CF112329F00630D5
:1044900008F09ACF8F2DE2CF053008F095CFEDCF01
:1044A000002359F3D93349F4FFEF27EE33E0F150FD
:1044B00020403040E1F700C000008D2F0E943721DE
:1044C00083CF8C2F86958695837069F0813009F0B3
:1044D0007BCF8D2F9C2F9370111102C090E080E054
:1044E0000E94E91F71CF8D2F9C2F9370111102C074
:1044F00090E080E00E94D31F67CF8C2F837009F07B
:1045000041C0111161CF4D2F429546954770440F20
:10451000440F0D2F0F7010E030E020E0042E04C097
:10452000000F111F221F331F0A94D2F760E070E0C2
:10453000CB01D4FF0FC06FE070E080E090E004C0DA
:10454000660F771F881F991F4A95D2F7609570955F
:1045500080959095C695C695C370602B712B822B64
:10456000932BC23049F058F4C13019F00E948B27C8
:104570002BCF0E94792728CF0E949D2725CF0E940C
:10458000772722CF8695112311F08C2F81708823F5
:1045900009F41ACF4D2F429546954770440F440FAA
:1045A0000D2F0F7010E030E020E0042E04C0000F4B
:1045B000111F221F331F0A94D2F760E070E0CB0175
:1045C000D4FF0FC06FE070E080E090E004C0660FA1
:1045D000771F881F991F4A95D2F76095709580952F
:1045E0009095C695C695C370602B712B822B932B2B
:1045F000C23049F058F4C13019F00E946E28E4CE60
:104600000E945C28E1CE0E948028DECE0E94B12765
:10461000DBCECF70112329F08C2F0E94F7278D2F2E
:104620001DCF8D2F0E9479218C2F0E941828CCCE6F
:10463000D23F89F160F4D03FC9F0D13F29F1112375
:1046400009F442C00111A8CE8C2F8F7121C0D33F35
:1046500039F1D43FA1F7112369F1CF718C2F0E945A
:10466000F72763E08C2F0E94012AAECE112341F080
:10467000053008F0A9CE8C2F8F710E943B28A4CE64
:10468000063008F0A1CEF7CF8C2F8F71112369F27D
:104690000E94F72799CE8C2F8F711123C9F3C5CFB4
:1046A000112329F08C2F8F710E94E2278DCE0E945A
:1046B000BD278ACE81E00E94162A023008F484CEFB
:1046C00082E00E94162A80CE002359F0D93309F0E7
:1046D000F4CE8FEF97EEE3E081509040E040E1F7B9
:1046E000EACE8C2F8F71A1CF4C2F4F706D2FC6014A
:1046F0000E94670C0E94EF2667CE4C2F4F706D2FE3
:10470000C6010E946A0C60CEDF91CF911F910F917C
:10471000FF90EF90DF90CF90BF9008950F931F937D
:10472000CF93DF93EC01688179818A810E943329DC
:104730008C010E9492280E947627B801CE01DF9159
:10474000CF911F910F910C948021CF93DF93EC01B7
:104750008B819C81892B29F08881998189238F3FC6
:1047600059F4DF91CF910895CE010E948E23CE019E
:10477000DF91CF910C94D30BCE010E94070C8111D5
:10478000F3CF0E947529882361F38A81882349F336
:1047900082E0DF91CF910C94162A0E949F290E94FB
:1047A000AF290E94CB2990E080E00E94D31F90E0C7
:1047B00080E00C94E91F0E9465290C94CD230E948F
:1047C0008C290C94DB23E92FE295EF70E250EE3058
:1047D00070F4F0E0EC55FC4C0C940533803F19F07C
:1047E00020F4883E20F481E00895843FE1F380E0E6
:1047F0000895883EC0F3813FD1F7F5CF93FB88271A
:1048000080F908950E9429290C94E323CF93DF9324
:1048100000D000D00F92CDB7DEB70F900F900F9061
:104820000F900F90DF91CF910895CF93DF9300D039
:1048300000D000D0CDB7DEB726960FB6F894DEBF15
:104840000FBECDBFDF91CF9108951F93CF93DF931C
:10485000C0914B0216E080914C028C1304C0DF9192
:10486000CF911F910895D0E01C9FF0011D9FF00D86
:104870001124E35BFD4F408151816281738184810A
:1048800095810E9415242196C770E5CF40917D0245
:1048900050917E0260917F0270918002809181022E
:1048A000909182020C9415241F93CF93DF938091F3
:1048B0008202807FA9F480917F02882389F0809111
:1048C0004B02C0914C0260917D0270917E02A091DA
:1048D0008002B0918102D62FD72316E0C81304C0FE
:1048E000DF91CF911F91089590E0109711F0DF3F75
:1048F00019F401968770F2CF189F9001199F300D1F
:104900001124F901E35BFD4F41814713F2CF408150
:104910004613EFCF42814111ECCF438154814A1BB2
:104920005B0B483C510528F7809182028F708061B3
:1049300080938202F901EE5AFD4F80818F70806171
:1049400080838DE792E00E94A523DF91CF911F9194
:104950000C942524AF92BF92CF92DF92EF92FF92F8
:104960000F931F93CF93DF93CDB7DEB761970FB649
:10497000F894DEBF0FBECDBF8C0185E0F801DE01EB
:104980001D9601900D928A95E1F7F80140815181C1
:10499000E2808DE7C82E82E0D82E6091800270916F
:1049A00081026115710509F461C190917D02209128
:1049B0007E02892F82238F3F09F458C1A380B480DF
:1049C000F0907F02F501E61BF70BFF2009F4FCC015
:1049D00080918202382F307FE83CF10508F0B2C0A8
:1049E000311179C0FE2C251323C0941321C0E1108E
:1049F0001FC08F708061809382020E944624C6018E
:104A00000E94A52380918202F80185838F2D6196F3
:104A10000FB6F894DEBF0FBECDBFDF91CF911F91CF
:104A20000F91FF90EF90DF90CF90BF90AF900895DF
:104A3000AB2829F0842F85238F3F09F033C180E014
:104A4000F82FF170DF2E80FF3CC080914B02209147
:104A50004C0236E0821315C04D875E878D859E859A
:104A60000E942929292F22952F702230F0F024301E
:104A700018F59F70F1F0F8019581907FD1F4D12C59
:104A80001EC090E0389FF001399FF00D1124E35BC8
:104A9000FD4F6181651306C06081641303C06281AC
:104AA0006E110FC001968770D5CF9F7011F08823CB
:104AB00031F3805E883018F3C8010E94A523FD2CD5
:104AC000A5CFEE2009F4A2CF80918202816080936D
:104AD0008202F12C9BCF251306C0941304C0F80169
:104AE000EE2009F48DC04D875E878D859E850E94DE
:104AF0000224882319F1EE2009F18091820280328C
:104B000070F020917D0230917E0238872F831986C4
:104B1000BB86AA868C87CE0107960E94A52386E0D5
:104B2000F801ADE7B2E001900D928A95E1F70E949D
:104B300054240E944624FF24F39468CFC8010E94A5
:104B4000A523F9CF311113C07A2DB98AA88A6E2D09
:104B500089890E9406248DE792E00E94A52386E0C1
:104B6000F60111928A95E9F70E944624B2CF2513E7
:104B70000FC094130DC0E1100BC0F8018583C8016C
:104B80000E94A52386E0F60111928A95E9F73ECFAF
:104B90004D875E878D859E850E940224882371F251
:104BA000EE2061F280918202803208F4B8CF209129
:104BB0007D0230917E023A8329831B82BD82AC82C2
:104BC0008E83CE010196A9CFE83CF10508F041C0E3
:104BD000FE2CEE2009F4B2CF25132AC0941328C06E
:104BE0008091820280FD1BC0982F907FC1F0F80158
:104BF0008583903F31F0982F907F905F8F70892B45
:104C00008583C8010E94A52386E0F801ADE7B2E0E4
:104C100001900D928A95E1F70E944624F7CE86E036
:104C2000F801ADE7B2E001900D928A95E1F7EECE82
:104C30004D875E878D859E850E94022481116FCFEE
:104C400080918202816080938202C8010E94A52324
:104C5000DDCE7A2DB98AA88A6E2D89890E94062414
:104C600086E0F60111928A95E9F7D6CFEE2009F495
:104C700065CF4D875E878D859E850E940224F82E24
:104C8000882309F45BCF86E0F801ADE7B2E001903C
:104C90000D928A95E1F78DE792E00E94EC200E9448
:104CA0005424BACF81E08E25CBCE1F93CF93DF93D0
:104CB000CDB7DEB72C970FB6F894DEBF0FBECDBFD1
:104CC0004F83588769877A878B879C87CE010796A1
:104CD0000E94AA24882369F08A859B85892B39F054
:104CE0004F815885842F85238F3F09F071C016E0CE
:104CF0005FC086E0FE013796DE01119601900D92AD
:104D00008A95E1F78A859B85892B89F388859F8120
:104D100089238F3F61F320914C0230E0C901019655
:104D20008770992740914B024817190671F40E9429
:104D3000DF2310924C0210924B0286E0EDE7F2E086
:104D4000DF011D928A95E9F7D2CF96E0929FD001BC
:104D5000939FB00D1124A35BBD4FFE0131960190CE
:104D60000D929A95E1F780934C020E942524BFCFC3
:104D7000819FC0011124835B9D4F0E94AA24882338
:104D8000E9F0E0914B021E9FF0011124E35BFD4F1F
:104D90004081518162817381848195810E941524B3
:104DA00080914B0290E001968770992780934B0287
:104DB00080914B0290914C028913DACF2C960FB65A
:104DC000F894DEBF0FBECDBFDF91CF911F91089544
:104DD00069857A858B859C850E94152488CFEF9202
:104DE000FF920F931F93CF93DF938C01892B81F058
:104DF000F12CEE24E394E8012196F80184918437A4
:104E000070F4843008F05FC08130B1F08230A1F1DD
:104E1000DF91CF911F910F91FF90EF90089585370B
:104E200009F44CC008F43DC09CE7980F903780F718
:104E30008F770E94372149C00E5F1F4FFE0184917A
:104E400090E2980F983060F48770FE2D01C0FF0F3C
:104E50008A95EAF78F2F0E94A2290E94CB2902C0CF
:104E60000E94F1208F2D815030F2EFE9FFE0319761
:104E7000F1F700C00000F7CF0E5F1F4FFE018491D5
:104E800090E2980F983050F48770FE2D01C0FF0F0C
:104E90008A95EAF78F2F0E94A829DFCF0E94372139
:104EA000E1CF0E5F1F4FFE01C491C150D8F28FE9D0
:104EB0009FE00197F1F700C00000F7CF0E5F1F4F92
:104EC000FE01F490CFCF0E94F1208E01CBCF089548
:104ED0000C9467270E9468276093B4027093B50210
:104EE0008093B6029093B7020C94CD2308950C944E
:104EF0006A270F931F930091B4021091B50220917D
:104F0000B6023091B702602B712B822B932B1F912D
:104F10000F910C946A270F931F930091B402109184
:104F2000B5022091B6023091B7026023712382232B
:104F300093231F910F910C946A270F931F93009155
:104F4000B4021091B5022091B6023091B7026027E9
:104F50007127822793271F910F910C946A270C9435
:104F60002A0A0E94AF276093B0027093B102809327
:104F7000B2029093B3020C94CD2360E070E0CB01B9
:104F80000C94B127611571058105910529F481E023
:104F9000442361F080E00895DC01CB0104C0B695A4
:104FA000A795979587954A95D2F781700895482FD0
:104FB0006091B0027091B1028091B2029091B302FF
:104FC0000C94C2270F931F9341E050E060E070E023
:104FD0008A019B0104C0000F111F221F331F8A95F5
:104FE000D2F7C901B8011F910F910C94B1270F930B
:104FF0001F9341E050E060E070E004C0440F551F93
:10500000661F771F8A95D2F78091B0029091B10206
:10501000A091B202B091B3028A019B01082B192B17
:105020002A2B3B2BC901B8011F910F910C94B1277A
:105030000F931F9341E050E060E070E004C0440F24
:10504000551F661F771F8A95D2F7CB01BA0160956D
:105050007095809590950091B0021091B1022091C9
:10506000B2023091B30260237123822393231F91F4
:105070000F910C94B1270F931F9341E050E060E033
:1050800070E004C0440F551F661F771F8A95D2F742
:105090008091B0029091B102A091B202B091B3029E
:1050A0008A019B01082719272A273B27C901B80134
:1050B0001F910F910C94B1270F931F930091B00291
:1050C0001091B1022091B2023091B302602B712B8A
:1050D000822B932B1F910F910C94B1270F931F9349
:1050E0000091B0021091B1022091B2023091B3024E
:1050F00060237123822393231F910F910C94B12776
:105100000F931F930091B0021091B1022091B2024F
:105110003091B30260277127822793271F910F9147
:105120000C94B127089527E0929F800D1124982FA9
:10513000977041E001C0440F9A95EAF786958695ED
:10514000869595E0899FF0011124ED57FD4F90E081
:1051500080E070E05191DF0111979B01082E02C0A1
:10516000369527950A94E2F7217021952527242367
:1051700025272C9301968530910561F7089527E046
:10518000929F800D1124982F97708695869586950D
:1051900025E0829FF0011124ED57FD4F50E040E0E3
:1051A00080E0219130E0092E02C0369527950A94BF
:1051B000E2F721703327042E01C0220F0A94EAF788
:1051C000822B4F5F5F4F4530510559F70895BF92CD
:1051D000CF92DF92EF92FF920F931F93CF93DF93C3
:1051E0008C01C090B002D090B102E090B202F09079
:1051F000B3028091B4029091B502A091B602B09131
:10520000B702C82AD92AEA2AFB2ACFE1D0E0BC2E6D
:10521000D701C6010C2E04C0B695A7959795879522
:105220000A94D2F780FD0EC0219788F7B12C8B2D00
:10523000DF91CF911F910F91FF90EF90DF90CF9072
:10524000BF900895B8018C2F0E94870C019761F3DD
:10525000EECFCF93DF93EC010E94E728BE01DF91F0
:10526000CF910C94870C1F93CF93DF93EB01909118
:105270004A02992331F0CB01DF91CF911F910C9419
:105280002929882379F0CB010E94E728182F682F5D
:10529000CE010E949328BE01812FDF91CF911F91F3
:1052A0000C94870CCB010E94BF28182FF4CF682FD5
:1052B00080913D0190913E010C94192B682F8091B3
:1052C0003D0190913E010C941B2B80913D019091EA
:1052D0003E010C941D2B8091B8028595859585958E
:1052E00008958091B802877008959091B8029770E0
:1052F00081E009F480E008958091C40208959091BE
:10530000C402892B8093C402089580959091C402B1
:1053100098239093C40208951092C4020895809136
:10532000C30208959091C302892B8093C30208950C
:1053300080959091C30298239093C3020895109290
:10534000C30208959091C202892B8093C2020895EE
:1053500080959091C20298239093C2020895109272
:10536000C20208958091B902089508950C94B52958
:105370009091B902981721F08093B9020C94B62944
:1053800008958091B902882329F01092B90280E033
:105390000C94B6290895E0913D01F0913E01809171
:1053A000C4028083E0913D01F0913E0180819091A3
:1053B000C302892B8083E0913D01F0913E01808101
:1053C0009091C202892B80839091B902992381F038
:1053D000E0913D01F0913E018081892B8083809195
:1053E0003D0190913E010E94D12A81110E94C12964
:1053F00080913D0190913E010C94C81F08950C943A
:10540000FE2998E0899F90011124622B6093B802D5
:105410000E94F7278091B8028595859585950C9413
:10542000FF291092B80280E00C94FF299091B802F5
:10543000809589238093B802282F277071F4282F34
:10544000082E000C330B9217130639F085958595BD
:1054500085950E9418280C94112A089590E080E008
:105460000E94443321E08C3E9E4F09F020E0822FC1
:10547000089582E090E00C94363383E090E00C9441
:105480003633CF9384E090E00E943633C82F81E218
:1054900090E00E943633982F8C2FCF910895CF93B0
:1054A000C92F682F84E090E00E944A336C2F81E27C
:1054B00090E0CF910C944A33AB01BC018FE090E0B7
:1054C0000C945C3383E190E00C943E33AB01BC015F
:1054D00083E190E00C945C3360E070E0CB010E94CB
:1054E0005C2A0C94090A6CEE7EEF90E080E00E944A
:1054F000683360E082E090E00E944A3360E083E03D
:1055000090E00E944A331092B4021092B5021092B9
:10551000B6021092B70260E084E090E00E944A3345
:1055200060E081E290E00E944A3360E085E090E034
:105530000E944A3360E086E090E00E944A336FEFB9
:1055400087E090E00E944A3340E050E0BA0188E0F2
:1055500090E00E945C3360E08DE090E00E944A336E
:1055600040E050E0BA0188E190E00E945C3360E0E6
:1055700087E190E00E944A3340E050E0BA018CE1BC
:1055800090E00E945C3360E080E290E00E944A3349
:105590000C946C2A0C94732A682F8EE090E00C9483
:1055A0004A339C012E5F3F4FAC01485F5F4F80E064
:1055B0002417350709F40895F90191919F01992362
:1055C000B9F38F5FF5CF662349F0FC013296089658
:1055D0002191261729F0E817F907D1F780E00895FF
:1055E00081E008959C01FC0132969FEF80E041919B
:1055F000461751F09F3F19F4411101C0982F8F5F5A
:105600008630A9F79F3F09F40895290F311D97FDB2
:105610003A95F90162830895FC013296089621912A
:10562000261303C0DF0111971C92E817F907B9F799
:1056300008950C94F22A0C940C2B029626E0FC019F
:1056400011922A95E9F70895089508950C94252B51
:105650000E94262B8091C405843009F437C0109233
:10566000C60288E190E020E40FB6F894A8958093F4
:1056700060000FBE2093600080E00E94EF0B8091DD
:10568000C70281110AC081E08093C7028091EF02B6
:1056900081708093C8020E9461120E94262B83B7FA
:1056A000817F846083BF83B7816083BF789488954E
:1056B00083B78E7F83BF0FB6F894A8958091600062
:1056C000886180936000109260000FBE0895089575
:1056D000CF930E94242B0E94020F0E94672BC0E0F0
:1056E0008C2F0E94730E811105C0CF5FCA30C1F7A5
:1056F000CF91089581E0FCCF08950C947C2B0E94FB
:10570000DF230E94BC1F0E94EF0B1092C702809102
:10571000C80281110E94BE130C947D2B1F921FB6EC
:105720001F9211248F939F93AF93BF938091C602D2
:10573000811113C08091BA059091BB05A091BC0561
:10574000B091BD054196A11DB11D8093BA059093FE
:10575000BB05A093BC05B093BD05BF91AF919F91D0
:105760008F911F901FBE1F90189582E084BD93E01B
:1057700095BD9AEF97BD80936E0008952FB7F8946A
:105780008091BA059091BB05A091BC05B091BD0573
:105790002FBF08952FB7F8946091BA057091BB059B
:1057A0008091BC059091BD052FBF08959C014FB716
:1057B000F8948091BA059091BB05A091BC05B09179
:1057C000BD054FBF821B930B089578941F921FB69F
:1057D0001F9211248F939F93AF93BF938091BA052B
:1057E0009091BB05A091BC05B091BD050196A11D8E
:1057F000B11D8093BA059093BB05A093BC05B093EF
:10580000BD05BF91AF919F918F911F901FBE1F90BB
:10581000189587E797E7909301088093000888E13F
:105820009AE00FB6F894A895809360000FBE90930D
:105830006000FFCF0E942E2A811102C00E94CA2A56
:105840000E94392A8093C5020E94412A9093BF0585
:105850008093BE050E943D2A682F70E090E080E0B2
:105860000C9477278091D10208950895CF93DF9308
:1058700000D00F92CDB7DEB79091C405943019F5E2
:1058800089837B836A8382E08093E9008FEF909124
:10589000E800815095FD06C095ED9A95F1F700005E
:1058A0008111F5CF8091E80085FF0DC050E040E008
:1058B00063E070E0CE0101960E944C2E8091E800DA
:1058C0008E778093E8000F900F900F90DF91CF912B
:1058D0000895CF93DF93EC010E942F2E823011F0B8
:1058E000843031F4BE0184E0DF91CF910C94362CEA
:1058F000DF91CF910895BC0183E00C94362CCF93B7
:10590000DF93EC010E942F2E823011F0843039F5A4
:1059100081E08093E9008FEF9091E800815095FD40
:1059200006C095ED9A95F1F700008111F5CF8091B1
:10593000E80085FF14C050E040E068E070E0CE0170
:105940000E944C2E8091E8008E778093E80088E0DA
:10595000FE01A9ECB2E001900D928A95E1F7DF918A
:10596000CF9108958091C305811109C00E94DC2F59
:105970000E9439308091E20084608093E2000895B3
:105980001092C3050895089508950C947F2B42E06A
:1059900061EC81E00E94582F42E261EC82E00C94BD
:1059A000582F8091C605833009F45FC030F48130F0
:1059B000C1F1823009F49BC008958A3009F487C090
:1059C0008B3009F46DC0893009F04EC08091C50557
:1059D000813209F049C08091C9059091CA050297AA
:1059E00008F042C08091E800877F8093E8008091B2
:1059F000E80082FF35C09091F3008091F200029799
:105A000029F48091F1008B7F813021F48091F100A5
:105A10008093D1028091E8008B778093E8000C940A
:105A20008C2F8091C505813AF9F48091E800877F39
:105A30008093E8008091C9059091CA05892B61F493
:105A400068E089EC92E070E00E949B2E8091E80073
:105A50008B778093E800089560E090E080E0F3CFDA
:105A60008091C4058111C3CF08958091C505813A05
:105A7000D9F78091C9059091CA05892BA9F7809122
:105A8000E800877F8093E8008091E80080FFFCCFEA
:105A9000809149018093F1008091E8008E77BDCF1D
:105AA0008091C505813201F78091C9059091CA05A1
:105AB000892BD1F68091E800877F8093E8000E94CF
:105AC0008C2F8091C705809349010C94DF2380912E
:105AD000C505813249F68091E800877F8093E80010
