:100000000C94D5060C94F2060C94F2060C9457242A
:100010000C94F2060C94F2060C94F2060C94F20680
:100020000C94F2060C94F2060C94662B0C943A2C69
:100030000C9461260C94F2060C94F2060C94F206D1
:100040000C94F2060C94F2060C94F2060C94F20650
:100050000C94F2060C9404270C94F2060C94F2060D
:100060000C94F2060C94F2060C94F2060C94F20630
:100070000C94F2060C94F2060C94F2060C94F20620
:100080000C94F2060C94F2060C94F2060C94F20610
:100090000C94F2060C94F2060C94F2060C94F20600
:1000A0000C94F2060C94F2060C94F20629001E0041
:1000B0001F002000210022000000350014001A005B
:1000C00008001500170000002B00040016000700B0
:1000D00009000A000000E1001D001B0006001900D5
:1000E00005002800E000E200E30003530251015143
:1000F0002C002D00270026002500240023000000EE
:100100002A00130012000C0018001C000000280038
:1001100033000F000E000D000B000000E500520040
:1001200037003600100011004C004F005100500005
:100130004600035301512C0033022D0034023800D5
:1001400022022D020000890223021E0238022F0023
:1001500089000000250226023000320030023202FF
:1001600000003602370287022E002F022E02A60060
:100170000100010001000000000000000100560025
:1001800055005400670089002E0000002A0061001D
:1001900060005F0030002F00000058005E005D002E
:1001A0005C00320034000000E6005B005A00590099
:1001B00087003800A60057006300360062008702FF
:1001C000380201003A003B003C003D003E003F0089
:1001D000000039025300B200B300B100B5000000C6
:1001E000AA00A900A800AE00AC00AB00000001000E
:1001F0000100010001000100010001000100B25DE9
:10020000010001000100010001004500440043001D
:1002100042004100400000004800470046005300F3
:100220000100010000004B004A00490001000100EC
:10023000010000004E004D004C00010001000100D3
:1002400001000100010001000100010001000100A6
:100250000100010001000100010001000000010097
:100260000100010001000100010000000100010087
:100270000100010001000100000001000100010077
:100280000100010001000100010001000100010066
:1002900001000100010035005D005C005B005A00B8
:1002A000590000002A006200610060005F005E00EB
:1002B00000002800E000E1004F0A3B053A0500007D
:1002C0002C005200E300190106011B0101004F0040
:1002D000510050004600035302510100000000008D
:1002E000000000000000000000000000000000000E
:1002F00000000000000000000000000000000000FE
:1003000000000000000000000000000000000000ED
:1003100000000000000000000000000000000000DD
:1003200000000000000000000000000000F00700D6
:1003300000FC07000080070000F0000000FE3F0006
:1003400000FF1F0000C00F0000FE070000FF7F003D
:1003500000FF1F0000801F00C0FF0F0000FF7F0094
:1003600080FF3F0000003F00F0FF3F0000FF7F00E4
:1003700080FF3F0000007F00FC1F7F00801FFC000B
:10038000800F3E000080FF00FE037C00800FF8001D
:10039000800F3E000080FF00FF00F800800FF80093
:1003A000800F3E0000807F001F00F000800FF800EB
:1003B000800F3F0000C0FF070F70F000800FF800B3
:1003C000808F3F0000E0FF070FFEF001800FF80074
:1003D00080CF3F0000F0CF039FFFF00180FFFF00C0
:1003E00080EF3F0000F8C101FF7FF00180FFFF00B8
:1003F00080FF3F0000FCC000FE1FF00080FFFF00F8
:1004000080FF3E00007E4000FC07F80080FFFF00F8
:10041000807F3E00003F0000F0007E00800FF8006B
:10042000803F3E00801F000000807F00800FF800AA
:10043000801F3E00C00F000000F03F00800FF8005A
:10044000800F3E00E007000000FC0F00800FF80066
:10045000800F3E00F003000000FF0300800FF80053
:10046000800F3E00F801000000FE0000800FF80041
:1004700080FF3F00FC000000007E0000800FF800BD
:1004800080FF3F007E000000007C0000800FF8002D
:1004900000FF1F003E00000000F80000800FF80081
:1004A00000FF1F001C00000000F80000800FF80093
:1004B00000FC07000800000000F000000000000041
:1004C000000000000000000000000000FCFFFF1F13
:1004D000FEFFFF0FFFFFFF87FFFFFF03020000206B
:1004E000FFFFFF9F000000C8FFFFFF07010000C0E3
:1004F000FFFFFF7F000000F0FFFFFF0F010000C0C3
:10050000FFFFFF7F000006F0FFFFF90F0100E0CFC3
:10051000FFFF0F78008007F0FF7FF80F0180FFCF0B
:10052000FF3F007800C003F0FF3FFC0F81DFFFCFEB
:100530003F10007800C003F0FF3FFC0FF9DFFFCF52
:100540000310007800C001F0FF3FFE0FF9DFFFCF7E
:100550000310007800E000F0FF1FFF0FF9DFFFCF6E
:1005600003100078800F1FF07FF0E00FF9DFFFCF5E
:1005700003100078C0FF7FF03F00800FF9DFFFCF4E
:1005800003100078E0FF7FF01F00800FF9DFFFCF3E
:1005900003100078F0FF3FF00F00C00FF9DFFFCF2E
:1005A00003100078F8FF1FF00700E00FF9DFFFCF1E
:1005B00003100078F8FF1FF00700E00F010000C0F3
:1005C000FFFFFF7FF8FF1FF00700E00FF9DFFFCF0D
:1005D00003100078F8FF1FF00700E00FF9DFFFCFEE
:1005E00003100078F8FF1FF00700E00FF9DFFFCFDE
:1005F00003100078F8FF1FF00700E00FF9DFFFCFCE
:1006000003100078F8FF3FF00700C00FF9DFFFCFBD
:1006100003100078F0FF7FF00F00800FF9DFFFCFAD
:1006200003100078F0FFFFF00F00000FF9DFFFCF9D
:1006300003100078F0FFFFF00F00000FF9DFFFCF8D
:1006400003100078E0FF7FF01F00800FC1DFFFCFB5
:100650001F100078C0FF3FF03F00C00F0180FFCFA8
:10066000FF3F0078C0FF3FF03F00C00F0100E0CF28
:10067000FFFF0F7880FF1FF07F00E00F010000C038
:10068000FFFFFF7F000F0FF0FFF0F00F010000C031
:10069000FFFFFF7F000000F0FFFFFF0F02000020C0
:1006A000FFFFFF9F000000C8FFFFFF07FCFFFF1FC9
:1006B000FEFFFF0FFFFFFF87FFFFFF03FCFFFF1F92
:1006C000FEFFFF0FFFFFFF87FFFFFF030200002079
:1006D000FFFFFF9F000000C8FFFFFF07010000C0F1
:1006E000FFFFFF7F000000F0FFFFFF0F01E003C0EE
:1006F000FF0FFE7F00FC01F0FF01FF0F01F007C0BC
:10070000FF07FC7F00FF07F07F00FC0F01F80FC020
:10071000FF03F87FC0FF1FF01F00F00F01F80FC0AC
:10072000FF03F87FE0033EF00FFEE00F01FC1FC067
:10073000FF01F07FF00078F087FFC30F01FC1FC0BE
:10074000FF01F07F7800F0F0C3FF870F01F80FC0C2
:10075000FF03F87F3800E0F0E3FF8F0F01F80FC0D0
:10076000FF03F87F1C70C0F1F1C71F0F01F80FC025
:10077000FF03F87F9CFFCFF13100180F01F80FC085
:10078000FF03F87FFEFFFFF30000000E010000C032
:10079000FFFFFF7FFEFFFFF30000000E01F007C028
:1007A000FF07FC7FFE8FFFF30038000E01F007C04B
:1007B000FF07FC7FFE07FFF3007C000E01F007C07F
:1007C000FF07FC7FFE07FFF3007C000E01F007C06F
:1007D000FF07FC7FFE8FFFF30038000E010000C012
:1007E000FFFFFF7F0EFF87F378003C0E01E003C0A0
:1007F000FF0FFE7F1CFEC3F1F1001E0F01E003C0DE
:10080000FF0FFE7F1CFCC1F1F1011F0F01E003C0CF
:10081000FF0FFE7F38F8E0F0E3838F0F01FC0FC07D
:10082000FF01F87F78F8F0F0C383870F01FE3FC027
:10083000FF00E07FF0F878F08783C30F01FE3FC030
:10084000FF00E07FE0FF3FF00F00E00FC1FFFFC1BE
:100850001F00007FC0FF1FF01F00F00FC1FFFFC18E
:100860001F00007F00FF07F07F00FC0FC1FFFFC1EA
:100870001F00007F00FC01F0FF01FF0F010000C01E
:10088000FFFFFF7F000000F0FFFFFF0F02000020CE
:10089000FFFFFF9F000000C8FFFFFF07FCFFFF1FD7
:1008A000FEFFFF0FFFFFFF87FFFFFF03FCFFFF1FA0
:1008B000FEFFFF0FFFFFFF87FFFFFF030200002087
:1008C000FFFFFF9F000000C8FFFFFF07010000C0FF
:1008D000FFFFFF7F000000F0FFFFFF0F010C00C0D3
:1008E000FFF3FF7F002000F0FFEFFF0F011E00C0AD
:1008F000FFE1FF7F007000F0FFC7FF0F013F00C066
:10090000FFC0FF7F00F800F0FF83FF0F817F00C072
:100910007F80FF7F00FC01F0FF01FF0FC1FF00C0DF
:100920003F00FF7F00FE03F0FF00FE0FE1FF01C06C
:100930001F00FE7F00FF07F07F00FC0F013F00C09B
:10094000FFC0FF7F80FF0FF03F00F80F013F18C08E
:10095000FFC0E77FC0FF1FF01F00F00F013F38C04E
:10096000FFC0C77FE0FF3FF00F00E00F013F78C0FE
:10097000FFC0877FF0FF7FF00700C00F013FFFC07F
:10098000FFC0007F00FF07F07F00FC0F01BFFFC129
:10099000FF40007E00FF07F07F00FC0F01BFFFC398
:1009A000FF40007C00FF07F07F00FC0F01BFFFC18C
:1009B000FF40007E00FF07F07F00FC0F01BFFFC07B
:1009C000FF40007F00FF07F07F00FC0F01BF7FC0EA
:1009D000FF40807F00FF07F07F00FC0F01BF38C0A1
:1009E000FF40C77F00FF07F07F00FC0F013F18C0EA
:1009F000FFC0E77F000000F0FFFFFF0F013F00C0D6
:100A0000FFC0FF7F000000F0FFFFFF0F013F00C0AD
:100A1000FFC0FF7F00FF07F07F00FC0F013F00C019
:100A2000FFC0FF7F00FF07F07F00FC0F013F00C009
:100A3000FFC0FF7F00FF07F07F00FC0F013F00C0F9
:100A4000FFC0FF7F00FF07F07F00FC0F013F00C0E9
:100A5000FFC0FF7F00FF07F07F00FC0F013F00C0D9
:100A6000FFC0FF7F00FF07F07F00FC0F010000C008
:100A7000FFFFFF7F000000F0FFFFFF0F02000020DC
:100A8000FFFFFF9F000000C8FFFFFF07FCFFFF1FE5
:100A9000FEFFFF0FFFFFFF87FFFFFF03FCFFFF1FAE
:100AA000FEFFFF0FFFFFFF87FFFFFF030200002095
:100AB000FFFFFF9F000000C8FFFFFF07010000C00D
:100AC000FFFFFF7F000000F0FFFFFF0F01FF7FC06F
:100AD0007F00C07F007000F0FFC7FF0F81FFFFC0E5
:100AE0003F00807F00F800F0FF83FF0F81FFFFC011
:100AF0003F00807F00FC01F0FF01FF0F8101C0C0BB
:100B00003FFF9F7F008E03F0FF38FE0F8101C0C0C2
:100B10003FFF9F7F000707F07F7CFC0F8101C0C073
:100B20003FFF9F7F000000F0FFFFFF0F81FFFFC02E
:100B30003F00807F000000F0FFFFFF0F81FFFFC03C
:100B40003F00807F000000F0FFFFFF0F81FFFFC02C
:100B50003F00807F000000F0FFFFFF0F8131C6C023
:100B60003FE79C7F007000F0FFC7FF0F8131C6C0D8
:100B70003FE79C7F00F800F0FF83FF0F8131C6C084
:100B80003FE79C7F00FC01F0FF01FF0F81FFFFC0EA
:100B90003F00807F00FC01F0FF01FF0F81FFFFC0DD
:100BA0003F00807F00FC01F0FF01FF0F8131C6C0D4
:100BB0003FE79C7F00F800F0FF83FF0F8131C6C044
:100BC0003FE79C7F007000F0FFC7FF0F8131C6C078
:100BD0003FE79C7F000000F0FFFFFF0F81FFFFC099
:100BE0003F00807F000000F0FFFFFF0F81FFFFC08C
:100BF0003F00807F000000F0FFFFFF0F8131C6C083
:100C00003FE79C7F000000F0FFFFFF0F8131C6C06F
:100C10003FE79C7F000707F07F7CFC0F8131C6C057
:100C20003FE79C7F008E03F0FF38FE0F81FFFFC07F
:100C30003F00807F00FC01F0FF01FF0F81FFFFC03C
:100C40003F00807F00F800F0FF83FF0F01FF7FC0AF
:100C50007F00C07F007000F0FFC7FF0F010000C0E1
:100C6000FFFFFF7F000000F0FFFFFF0F02000020EA
:100C7000FFFFFF9F000000C8FFFFFF07FCFFFF1FF3
:100C8000FEFFFF0FFFFFFF87FFFFFF0300AE00AF78
:100C900000DA0281FFD9F1DB20A4A62EAF00A0C0AC
:100CA00000A1C800AED580A81FD300408D1420003D
:100CB0001803480065006C006900780020005200AD
:100CC00065006D006900780000001A0354004E00B2
:100CD0004B00200053006F00660074007700610035
:100CE0007200650000000403090409023B000201D0
:100CF00000A0C8090400000103010100092111013D
:100D000000012240000705810308000109040100D9
:100D10000103000000092111010001223200070532
:100D20008203200001120100020000000865320069
:100D30000001000102000105010980A101850319DC
:100D4000012AB700150126B700950175108100C072
:100D5000050C0901A101850419012AA0021501262B
:100D6000A002950175108100C005010906A10105C9
:100D70000719E029E71500250195087501810295FD
:100D800001750881010507190029FF150026FF00DC
:100D90009506750881000508190129059505750155
:100DA0009102950175039101C00011241FBECFEF80
:100DB000DAE0DEBFCDBF11E0A0E0B1E0E0EEFDE59E
:100DC00002C005900D92A03DB107D9F725E0A0ED36
:100DD000B1E001C01D92A536B207E1F70E94521B97
:100DE0000C94D82E0C94000087FD3DC06032D8F5DD
:100DF000262F26952695269590E8299F9001112467
:100E0000820F932F911DFC01E45BFC4F50816770B2
:100E1000252F30E0062E02C0359527950A94E2F77B
:100E20002170241701F121E030E001C0220F6A9502
:100E3000EAF74423C9F0252B208325E09695879572
:100E40002A95E1F721E030E002C0220F331F8A9596
:100E5000E2F78091EE029091EF02822B932B909318
:100E6000EF028093EE02089520952523E5CFA8E1B7
:100E7000B0E0EDE3F7E00C94212E9C878B873B01DB
:100E80005E834D833A8729878F82C60101974A0185
:100E9000880E991EE49E9001E59E300DF49E300D63
:100EA000112469857A85269FA001279F500D369FC2
:100EB000500D1124069D9001079D300D169D300D9B
:100EC0001124BA01620F731F7C836B83312C212C98
:100ED00018862FEF3FEFA301480F591F5C8B4B8BF8
:100EE000B5016C197D097E8B6D8BC5010197AC0135
:100EF000460D571D588F4F8B6D817E812616370604
:100F00000CF466C06896E2E10C943D2E8B819C81C6
:100F1000800F911FAC0197FF02C0495F5F4FBA017C
:100F200043E0759567954A95E1F77A8369832617BB
:100F3000370731F0EB85FC85E60FF71F7491788752
:100F40002F81223089F12330B1F12130D9F574019C
:100F50002501400E511E4885242F30E068E070E0E6
:100F60000E94072E02C0359527958A95E2F7422FF9
:100F70004170642D8E2D0E94F4060F5F1F4F298152
:100F80003A81061517050CF4C1CF5FEF251A350A13
:100F900061E0861A91088B819C8149855A85840F6E
:100FA000951F9C838B83A8CFEB88FC88E01AF10AFD
:100FB0004D845E84D0CFEF84F8884F88588C401AD7
:100FC000510AC9CF7801EC0CFD1C49885A88C3CF5F
:100FD00010E000E06D897E89680D791D7E876D8740
:100FE000C1018C0D9D1D988B8F87A501420D531D4E
:100FF0005A8B498BC6CF0E94321D0895FB01808118
:1010000080932F0308950F931F93CF93C82F0E94AF
:10101000A8188C1307C081E080930001CF911F9125
:101020000F9108958823D1F310E000E020E04FE213
:1010300053E061E087E00E94E81AF0CFCF93C82F19
:1010400080912F03C0FB80F980932F0380E00E94E2
:10105000030880912B03982F91709C17C1F0C0FB5F
:1010600080F980932B0381E0C82780913403C0FB73
:1010700082F9C0FB83F98093340360912B03709154
:101080002C0380912D0390912E030E947713CF9112
:10109000089510922B0310922C0310922D0310929E
:1010A0002E0360E070E0CB010E9477130895109248
:1010B0002F030E94721360932B0370932C03809371
:1010C0002D0390932E03862F81700E941E086EEFD1
:1010D00077E087E00E94D51A0895CF93DF93EC0163
:1010E00081E00E940308CE01DF91CF910895873EF1
:1010F000910568F4843E910530F4803E910568F0D6
:10110000833E910560F481E00E94030806C0873E9B
:10111000910529F0823B9D4561F081E00895809121
:101120002F03FB01928190FB81F980932F0380E0D4
:10113000EBCFFB0182818823D1F380912B03809533
:1011400081700E941E08F3CF90912F0381FB92F9CA
:1011500080FB93F982FB94F990932F0380E00E9427
:10116000030881E0089508958F92AF92BF92CF92C5
:10117000DF92EF92FF920F931F936B015A017C0154
:1011800097FF03C023E0E20EF11CF594E794F59479
:10119000E79464E070E00E94072E882483948C0119
:1011A00020E830E04FE150E06FE170E08CED92E03C
:1011B0000E9437071F910F91FF90EF90DF90CF9023
:1011C000BF90AF908F900895CF9363E08091FD0121
:1011D0009091FE010E944A0E811146C062E080910A
:1011E000FD019091FE010E944A0E811140C061E014
:1011F0008091FD019091FE010E944A0E90E041E035
:1012000050E061E670E00E94B4080E945312C82FBB
:10121000282F227281E090E011F490E080E041E01C
:1012200050E061E470E008960E94B40821E030E0EC
:101230009C2F917111F430E020E041E050E061E238
:1012400070E0C9010A960E94B408C47481E090E07D
:1012500011F490E080E041E050E061E070E00C9635
:101260000E94B408CF91089583E090E0C8CF82E057
:1012700090E0C5CFEF92FF920F931F93CF93DF9330
:1012800040912F0386E090E040FF02C084E090E0B0
:1012900041FB222720F930E041E050E061E670E0B8
:1012A000820F931F0E94B40880912F0382FBEE24CB
:1012B000E0F8F12C41E050E061E470E0C7010E96E7
:1012C0000E94B40880912F0383FB002700F910E0EF
:1012D00041E050E061E270E0C80140960E94B4082D
:1012E00080912F0382958170C82F80E0D82F41E034
:1012F00050E061E070E0CE0142960E94B408CDB7A4
:10130000DEB7E6E00C94492E80912F039091D20134
:10131000891759F08093D201109200010E94A818F9
:10132000882349F00E94E40804C0809100018111E3
:10133000F3CF80E008950E943A09FBCF81E0089541
:101340000E947708089508950E94A3090895A5E0D2
:10135000B0E0EDEAF9E00C94302E49835A833091E5
:10136000D80189819A81311119C0662399F022230D
:1013700089F00E94300F182F682F89819A810E946E
:101380000C0F69817A81812F0E949B152596E3E0DD
:101390000C944C2E0E941E0F182FF3CF0E94300F7A
:1013A00069817A81F1CFFC01262F408151816281D0
:1013B000738184810E94A709089581E00895CF93E5
:1013C000DF93EC0160E00E94D309BE010E94A409F2
:1013D000DF91CF9108950E94021708950E94061789
:1013E000089508950E94C60D0E94F1092FEF84E32D
:1013F0009CE0215080409040E1F700C0000008953B
:101400000E94F2090E94282708950E94F2090E9472
:1014100039270895A2E0B0E0E0E1FAE00C942F2E25
:101420008C0161E00E94D3099A838983B801CE01BF
:1014300001960E94201F811105C080E02296E4E001
:101440000C944B2EB80189819A810E94A0098823AF
:10145000A1F3B80189819A810E947922882369F3D6
:10146000B80189819A810E94881D882331F3B801CF
:1014700089819A810E94F61E8823F9F2F8018281FF
:10148000882371F089819A818B35FDE59F0701F1F1
:1014900058F48115ECE59E0791F08F3D9C4591F045
:1014A000C8010E949E09CACF8D352DE5920769F0CB
:1014B00090F0883A9D45A1F70E94050ABECF0E9490
:1014C000000ABBCF0E94E213F7CF0E942813E8CF97
:1014D0000E943213E5CF0E943613E2CF0E943E26CF
:1014E0000E948B0A0E94321D08950E948F0A0E945A
:1014F0004326089508950E947A0A08950E94A40838
:1015000008950895CF93C82F0E947B0A8C2F0E94C4
:101510007E0ACF91089580E00E94820A08950E9479
:101520007D250E94820A0895CF930E947D25C82FB1
:101530008091D3018C1779F0C093D3010E94CD26FE
:101540006093D4017093D5018093D6019093D70115
:101550008C2F0E94820ACF910895ABE0B0E0E3EBBC
:10156000FAE00C94312E4F83588769877A878B87EE
:1015700061110E9473121E821D8285E0FE01379662
:10158000DE01119601900D928A95E1F78C819D8183
:10159000892B61F449815A816B817C818D819E8187
:1015A0000E949C112B96E2E00C944D2E89819A8129
:1015B00089238F3F79F3CE0101960E94DD098111C5
:1015C000E9CFF0CFFC01808191810E94620F0895E4
:1015D000CF93C82F8823B9F08CEF8C0F813AA8F4F1
:1015E0006C2F80910101909102010E94DA258823DD
:1015F00029F08C2F0E9433120E9494128C2F0E948B
:101600002B120E949412CF91089580E28C0F8830A3
:1016100048F4C77081E001C0880FCA95EAF70E94BC
:101620005612EFCFEBE5EC0FE33040F4F0E0EA5771
:10163000FE4F808190E00E949C25E5CFC85AC731BB
:1016400010F7EC2FF0E0EE0FFF1FE85AFE4F8081FD
:1016500091810E94B225D7CF882339F19CEF980F52
:10166000913A28F40E9433120E949412089590E255
:10167000980F983050F4877091E001C0990F8A95C7
:10168000EAF7892F0E945C12EFCF9BE5980F933009
:1016900028F490E080E00E949C250895885A8731C4
:1016A00020F490E080E00E94B22508951F93CF932C
:1016B000DF93182FEB010E94E80A209739F4812F5D
:1016C0000E942C0BDF91CF911F9108958FE99FE02D
:1016D0000197F1F700C000002197EFCF70E060E0C4
:1016E000893311F460E570E00E94560B0895882359
:1016F00021F00E9456120E9494120895882321F02E
:101700000E945C120E9494120895B0E0A0E0EBE801
:10171000FBE00C942A2E6C01D62FC72FFC011281FE
:10172000F580F2949FE0F9220E944C12E82E882363
:10173000B9F0E12E1123A1F08C2F807F803421F0AD
:1017400080E28D0F8830D0F08091350382FF16C083
:1017500082E00E94F7120E944C1291E0E82EE926E6
:10176000BC2EB2948FE0B822FBE0FB1508F468C0F1
:10177000EB2DF0E0E652F14D0C941B2EE12CF0CF56
:101780000C2F0F70C07F11F00295007F112399F08C
:10179000002359F080E28D0F883010F0D11107C07E
:1017A000802F0E9456120E9494128D2F41C0802FCC
:1017B0000E946612F8CF8D2F0E942C0B002309F493
:1017C0003FC080E28D0F883010F0D11104C0802F0F
:1017D0000E945C1203C0802F0E946C120E9494121F
:1017E0002FC00C2F0F70C07FC03211F00295007F08
:1017F000DD2381F0D13009F463C0112309F46DC0F9
:10180000FF2009F463C0F601858180FFCECF8F7081
:1018100085835CC08091350382FD33C0112359F06C
:10182000002329F0802F0E9456120E94941280E01B
:101830000E94E80A05C080E00E942C0B0111C7CF6E
:10184000EB2DE850FF0B349720F40E947D250E9479
:10185000820AEE2089F00E94481280FD0DC0F60138
:1018600012820E9442120E946A0EC6010E948A0DD4
:101870000E9442120E947A0ECDB7DEB7E9E00C94C6
:10188000462E112389F0F11006C00E947612802B9B
:101890000E94770BD5CF21E0F212F7CF0E9476128B
:1018A000802B0E947D12CCCFF11006C00E948A12BC
:1018B000802F0E947E0BC4CF31E0F31609F2F6CFE1
:1018C000112331F085E08F1508F4BACF802FE0CFD7
:1018D00094E09F1508F4B4CFEBCFFF2049F3D93340
:1018E00049F4FFEF27EE33E0F15020403040E1F7BC
:1018F00000C000008D2F0E942C0BA2CF8C2F86954C
:101900008695837069F0813009F09ACF8D2F9C2FD6
:101910009370111102C090E080E00E94B22590CF38
:101920008D2F9C2F9370111102C090E080E00E94D7
:101930009C2586CF8C2F8370A1F5111181CF4D2F5F
:10194000429546954770440F440F2D2F2F7030E07D
:10195000042E02C0220F331F0A94E2F790E080E0C9
:10196000D4FF09C08FE090E002C0880F991F4A950C
:10197000E2F780959095C695C695C370822B932B00
:10198000C23049F058F4C13019F00E94270E58CFE8
:101990000E941E0E55CF0E94300E52CF0E941B0E89
:1019A0004FCF8695112311F08C2F8170882309F475
:1019B00047CF4D2F429546954770440F440F2D2F2A
:1019C0002F7030E0042E02C0220F331F0A94E2F77A
:1019D00090E080E0D4FF09C08FE090E002C0880F63
:1019E000991F4A95E2F780959095C695C695C37064
:1019F000822B932BC23049F058F4C13019F00E9469
:101A0000A50E1ECF0E949C0E1BCF0E94AE0E18CFBB
:101A10000E943C0E15CFCF70112329F08C2F0E940D
:101A20006A0E8D2F35CF8D2F0E947E0B8C2F0E943A
:101A30007A0E06CFD23F51F160F4D03FB9F0D13FDA
:101A400081F0112309F449C0F110AFCE8C2F8F71B2
:101A500021C0D33F11F1D43FA1F78091350382FD1E
:101A600026C08C2F8F71112311F314C0112349F05C
:101A700084E08F1508F4E4CE8C2F8F710E948C0EB9
:101A8000DFCE95E09F1508F4DBCEF6CF8C2F8F715B
:101A90001111CDCF0E946A0ED3CE112329F08C2FC5
:101AA0008F710E945E0ECCCE0E94450EC9CE1123CE
:101AB00049F0CF718C2F0E946A0E63E08C2F0E9438
:101AC000D912BECE81E00E94F712E1E0EF1508F0D6
:101AD000B7CE82E00E94F712B3CEF11000CF8C2F68
:101AE0008F71A5CF0F931F93CF93DF93EC01688184
:101AF00079818A810E946D0F8C010E94B70E0E942D
:101B00001A0EB801CE010E94850BDF91CF911F9173
:101B10000F910895CF93DF93EC018B819C81892BEA
:101B200029F08881998189238F3F51F4DF91CF91EA
:101B30000895CE010E94720DCE010E94DF09F6CFFA
:101B4000CE010E940A0A8111F4CF0E944C12882310
:101B500069F38A81882351F38091350382FFE6CFB0
:101B600082E00E94F712E2CF90E080E00E949C2584
:101B700090E080E00E94B2250E9473120E949412AD
:101B800008950E943B120E94B40D08950E946312B2
:101B90000E94C10D089592959F70963091F058F46F
:101BA000925F9F70923058F4803F19F030F4883E75
:101BB00030F481E008959A5FF4CF843FD1F380E060
:101BC0000895883EB0F3813FD1F7F3CFFC018381C4
:101BD0009481892B29F08081918189238F3F11F491
:101BE00080E00895808191810E94620F0E94CB0D58
:101BF0000895A5E0B0E0EFEFFDE00C94312E2596BE
:101C0000E2E00C944D2EA6E0B0E0E9E0FEE00C949A
:101C1000312E2696E2E00C944D2E08950E940D0E72
:101C200008950E940E0E909300028093FF010E947F
:101C3000B40D089508950E94110E08952091FF019A
:101C400030910002822B932B0E94110E0895209157
:101C5000FF0130910002822393230E94110E089508
:101C60002091FF0130910002822793270E94110EDC
:101C700008950E946D0808950E94390E9093FE0108
:101C80008093FD010E94B40D089590E080E00E94D1
:101C90003C0E0895009729F481E0662371F080E0FE
:101CA0000CC021E030E002C0220F331F6A95E2F73A
:101CB0002823392381E0232B91F3089521E030E09C
:101CC000A90102C0440F551F8A95E2F7CA010E947C
:101CD0003C0E089521E030E002C0220F331F8A95A8
:101CE000E2F78091FD019091FE01822B932B0E94DF
:101CF0003C0E089521E030E002C0220F331F8A9588
:101D0000E2F7209530958091FD019091FE018223AC
:101D100093230E943C0E089521E030E002C0220F80
:101D2000331F8A95E2F78091FD019091FE01822791
:101D300093270E943C0E08952091FD013091FE01F1
:101D4000822B932B0E943C0E08952091FD0130912F
:101D5000FE01822393230E943C0E08952091FD01F1
:101D60003091FE01822793270E943C0E089508952A
:101D7000262F277091E001C0990F2A95EAF723E0FA
:101D8000769567952A95E1F7660F771F660F771F9F
:101D9000FA01E60FF71F50E040E0682F70E08191F4
:101DA000DF0111979B01042E02C0369527950A94F6
:101DB000E2F7217021952827292328272C934F5FAC
:101DC0005F4F4430510559F70895A82FA77023E0BD
:101DD000969587952A95E1F7880F991F880F991F87
:101DE000FB01E80FF91F50E040E080E0219130E076
:101DF0000A2E02C0369527950A94E2F72170332700
:101E0000042E01C0220F0A94EAF7822B4F5F5F4F26
:101E10004430510559F70895262F9A3070F48730D1
:101E200060F4682F70E087E0989F600D711D1124A9
:101E300049ED51E0822F0E94B80E0895292F9A3063
:101E400068F4873058F490E069ED71E037E0239F43
:101E5000800D911D11240E94E50E089580E00895E3
:101E6000B0E0A0E0E6E3FFE00C942A2E7C010091B4
:101E7000FD011091FE018091FF0190910002082B5D
:101E8000192BCFE0D0E0CC24C394D12CBC2EC601BA
:101E90000C2E02C0880F991F0A94E2F78023912329
:101EA000892B49F4219790F7B12C8B2DCDB7DEB754
:101EB000E9E00C94462EB7018C2F0E94B6150197CD
:101EC00089F3F3CFCF93DF93EC010E94300FBE0173
:101ED0000E94B615DF91CF9108951F93CF93DF93A2
:101EE000EB019091D801992339F0CB010E94620F48
:101EF000DF91CF911F910895882369F0CB010E9453
:101F0000300F182F682FCE010E940C0FBE01812FB9
:101F10000E94B615EDCFCB010E941E0F182FF6CFF1
:101F20001F93CF93DF93C091010216E080910202CC
:101F30008C1304C0DF91CF911F910895D0E01C9FB6
:101F4000F0011D9FF00D1124ED5FFD4F4081518187
:101F500062817381848195810E94030E2196C770EE
:101F6000E5CF409133025091340260913502709177
:101F7000360280913702909138020E94030E089534
:101F80001F93CF93DF9380913802807F09F049C07F
:101F900080913502882309F444C080910102C091E8
:101FA00002026091330270913402A0913602B09126
:101FB0003702D62FD72316E0C81799F190E0109773
:101FC00011F0DF3F19F401968770F6CF189F90014A
:101FD000199F300D1124F901ED5FFD4F4181471329
:101FE000F2CF40814613EFCF42814111ECCF4381C4
:101FF00054814A1B5B0B483C510528F780913802FD
:102000008F70806180933802F901E85FFD4F808115
:102010008F708061808383E392E00E948A0D0E942A
:10202000900FDF91CF911F910895A1E1B0E0EBE116
:10203000F0E10C94292E8C0185E0F801DE011D965B
:1020400001900D928A95E1F7F801E28083E3C82EB2
:1020500082E0D82E609136027091370261157105C9
:1020600009F44EC19091330220913402892F8223CA
:102070008F3F09F445C140815181A380B480F09025
:102080003502F501E61BF70BFF2009F4EAC0809149
:102090003802382F307FE83CF10508F0A3C0311139
:1020A0006DC0FE2C251316C0941314C0E11012C08D
:1020B0008F708061809338020E94B10FC6010E9428
:1020C0008A0D80913802F80185838F2D6196EAE0B0
:1020D0000C94452EA114B10429F0842F85238F3F41
:1020E00009F027C180E0F82FF170DF2E80FF3CC09F
:1020F000809101022091020236E0821315C04D87C3
:102100005E878D859E850E94620F292F22952F70F4
:102110002230F0F0243018F59F70F1F0F80195812D
:10212000907FD1F4D12C1EC090E0389FF001399FF0
:10213000F00D1124ED5FFD4F6181651306C06081D4
:10214000641303C06281E6120FC001968770D5CF79
:102150009F7011F0882331F3805E883018F3C80136
:102160000E948A0DFD2CB1CFEE2009F4AECF8091F4
:102170003802816080933802F12CA7CF251306C066
:10218000941304C0F801EE2009F487C0C8010E942E
:10219000E60D882319F1EE2009F180913802803292
:1021A00070F0209133023091340238872F831986E2
:1021B000BB86AA868C87CE0107960E948A0D86E090
:1021C000F801A3E3B2E001900D928A95E1F70E9435
:1021D000C00F0E94B10FFF24F39477CFC8010E9473
:1021E0008A0DF9CF311113C07A2DB98AA88A6E2DC4
:1021F00089890E94F90D83E392E00E948A0D86E0AE
:10220000F60111928A95E9F70E94B10FB5CF251317
:102210000FC094130DC0E1100BC0F8018583C801F5
:102220000E948A0D86E0F60111928A95E9F74DCF5A
:10223000C8010E94E60D882389F2EE2079F2809190
:102240003802803208F4BBCF20913302309134023F
:102250003A8329831B82BD82AC828E83CE01019694
:10226000ACCFE83CF10508F03EC0FE2CEE2009F4AE
:10227000B5CF25132AC0941328C08091380280FD61
:102280001BC0982F907FC1F0F8018583903F31F0FB
:10229000982F907F905F8F70892B8583C8010E9453
:1022A0008A0D86E0F801A3E3B2E001900D928A95D1
:1022B000E1F70E94B10F09CF86E0F801A3E3B2E095
:1022C00001900D928A95E1F700CFC8010E94E60DBA
:1022D000811175CF80913802816080933802C801E6
:1022E0000E948A0DF2CE7A2DB98AA88A6E2D89892C
:1022F0000E94F90D86E0F60111928A95E9F7D9CF8F
:10230000EE2009F46BCFC8010E94E60DF82E882359
:1023100009F464CF86E0F801A3E3B2E001900D92E6
:102320008A95E1F783E392E00E94E20A0E94C00FDF
:10233000C0CF81E08E25D7CEACE0B0E0E2EAF1E19B
:102340000C94302E4F83588769877A878B879C87B8
:10235000CE0107960E941510882369F08A859B8517
:10236000892B39F04F815885842F85238F3F09F0C1
:102370006BC016E05FC086E0FE013796DE01119665
:1023800001900D928A95E1F78A859B85892B89F3C7
:102390008F81988589238F3F61F32091020230E07D
:1023A000C9010196877099274091010248171906C3
:1023B00071F40E94C60D109202021092010286E092
:1023C000E3E3F2E0DF011D928A95E9F7D2CF96E0D0
:1023D000929FD001939FB00D1124AD5FBD4FFE01C0
:1023E000319601900D929A95E1F7809302020E9436
:1023F000900FBFCF819FC00111248D5F9D4F0E9420
:1024000015108823E9F0E09101021E9FF0011124CC
:10241000ED5FFD4F4081518162817381848195819F
:102420000E94030E8091010290E001968770992727
:102430008093010280910102909102028913DACF08
:102440002C96E3E00C944C2E69857A858B859C85CF
:102450000E94030E8ECF682F80910101909102019E
:102460000E9410260895682F809101019091020129
:102470000E941326089580910101909102010E940B
:102480001626089580914102859585958595089534
:10249000809141028770089590914102977081E088
:1024A00009F480E0089580914C02089590914C02C7
:1024B000892B80934C020895809590914C0298232B
:1024C00090934C02089510924C02089590914B0203
:1024D000892B80934B020895809590914B0298230D
:1024E00090934B02089510924B02089580914202FE
:1024F000089508950E94791208959091350392FFEE
:1025000008C090914202981721F0809342020E94E5
:102510007A12089580914202882329F01092420293
:1025200080E00E947A120895CF93DF93E091010139
:10253000F091020180914C028083E0910101F091C1
:102540000201808190914B02892B808390914202FD
:10255000992381F0E0910101F09102018081892BA2
:10256000808380910101909102010E94C825811110
:102570000E948A12C0910101D091020148E050E00E
:1025800069E372E0CE010E947A2E892B59F088E02F
:10259000FE01A9E3B2E001900D928A95E1F7CE0128
:1025A0000E949125DF91CF91089508950E94D51240
:1025B00008959091350392FF11C098E0899F900192
:1025C0001124622B609341020E946A0E80914102A5
:1025D0008595859585950E94D61208950E946A0E6C
:1025E00008951092410280E00E94D61208959091C1
:1025F00041028095892380934102282F277091F40E
:10260000282F082E000C330B9217130659F09091C7
:10261000350392FF07C08595859585950E947A0EB2
:102620000E94F11208959091350392FB222720F920
:10263000281769F080FB92F9909335038091340359
:10264000909135030E945D1382E00E94F712089575
:102650008091350382FB882780F991E089270E94C9
:102660001313089581E00E941313089580E00E94DF
:102670001313089590E080E00E949E2E21E0883E92
:102680009E4F09F020E0822F089582E090E00E94A2
:10269000902E089583E090E00E94902E0895CF93AD
:1026A00084E090E00E94902EC82F82E290E00E9489
:1026B000902E982F8C2FCF910895CF93C92F682FEC
:1026C00084E090E00E94A42E6C2F82E290E00E94B1
:1026D000A42ECF910895AB01BC018FE090E00E9441
:1026E000B62E089583E190E00E94982E0895AB01E4
:1026F000BC0183E190E00E94B62E089560E070E096
:10270000CB010E946B130E944908089568EE7EEF8A
:1027100090E080E00E94C22E60E082E090E00E94A3
:10272000A42E60E083E090E00E94A42E10920002AC
:102730001092FF0160E084E090E00E94A42E64E02B
:1027400082E290E00E94A42E60E085E090E00E948A
:10275000A42E60E086E090E00E94A42E6FEF87E058
:1027600090E00E94A42E40E050E0BA0188E090E0A2
:102770000E94B62E60E08DE090E00E94A42E40E022
:1027800050E0BA0188E190E00E94B62E60E087E157
:1027900090E00E94A42E40E050E0BA018CE190E06D
:1027A0000E94B62E70E060E080E290E00E94C22EAF
:1027B00040E050E0BA0188E190E00E94B62E0E940D
:1027C0007E1308950E9486130895682F8EE090E08E
:1027D0000E94A42E08950E94CD2660935D027093FE
:1027E0005E0280935F02909360026093590270933F
:1027F0005A0280935B0290935C02089508950895B5
:102800000E94FF1308950E945708089580EE96E1F4
:102810000E9473250E94FE130E94001408950E94D6
:10282000A8180895089508950E9412140E94131480
:1028300008950E94E3160E94810A08950E94B82616
:102840000E94A0160E94C3180E9409180E94191421
:102850000E945F1B80E00E94B71B0E94CD180E945F
:1028600003140895AAE0B0E0E8E3F4E10C94292E03
:102870000E942C188FE4A82E82E0B82E750110E07B
:10288000F70101917F01812F0E9409171F5F1A3004
:1028900009F441C00817A1F38091610281FD0E94F3
:1028A0000F170E940F14C82E10E0812F0E940917E5
:1028B000082FF50181915F01081731F1D02ED8263C
:1028C000F12CEE24E3948D2D8E21B1F0CC20A1F0DB
:1028D000FE821F8391E0802F8E2109F490E098877B
:1028E0000E94C1268160782F9A8789874E815F81F7
:1028F00068858A850E94AD0AF394EE0CF7E0FF121A
:10290000E2CFF501319700831F5F1A3071F60E9404
:10291000EB1311E021C00813BFCF0E94C1268C0128
:1029200080914D0290914E0208171907A1F08FEF88
:1029300089838A831B820E94C1268160782F9D83B0
:102940008C8349815A816B818D810E94AD0A1093DD
:102950004E0200934D0210E00E94A8180E94501DE4
:1029600011110E94161C0E94940A2A96EAE00C9407
:10297000452ECF93DF930E94BB15EC01811522E514
:102980009207E8F5811531E5930708F0A3C0883E6A
:10299000910510F5803E910570F5883A910570F427
:1029A000853A910508F078C08130910521F10097B2
:1029B00011F1049700F5D0E0C0E01DC08F3B9105F8
:1029C000D0F7C85AD0E0CC0FDD1FC757DE4F0990B3
:1029D000D881C02DD4640FC0811540E5940708F05C
:1029E00066C0C11580E4D80708F05EC0CE019A9594
:1029F00081159F4100F7CE01DF91CF910895811598
:102A000036E5930718F5811545E5940708F07BC076
:102A1000C11584E5D80708F071C09E0123703327E3
:102A20009C2F96959695C115D34508F458C0C1E0E2
:102A3000D0E002C0CC0FDD1F2A95E2F730E2939F71
:102A4000C0011124C82BD92BDA68D5CFC1158AE56E
:102A5000D80778F4C11529E5D20708F05EC0C11582
:102A600038E5D30708F4A7CFDC2FCC27C06FD06A96
:102A7000C2CFCE0190568115904208F09CCF8D2F89
:102A80008F710E945D1690E0982F882788279F718C
:102A90009C012C2BE9013FC0C55AD0E0C954DE4F40
:102AA000C881D0E0D064A7CFDF70D06AA4CF837094
:102AB000992721E030E002C0220F331F8A95E2F708
:102AC000C695C69580E2C89FE0011124C22BD32B86
:102AD000DD6891CFD82FCC27C16FD06A8CCFC1E0F1
:102AE000D0E002C0CC0FDD1F2A95E2F720E2929FD2
:102AF000C0011124C82BD92BDC687DCFDC2FCC275B
:102B0000C46FD06A78CF0E945D16C82FD0E0DC2F4A
:102B1000CC27CC27DF71D0626ECF8C2F8F700E94B4
:102B20005D1634E0D695C7953A95E1F7CF709C2FA6
:102B3000EC01D06960CF972F7A30A8F4673098F411
:102B400070E027E0929F600D711D1124FB0196E457
:102B5000899FE00DF11D1124EE0FFF1FE455FF4F7B
:102B600085919491089580E090E008950E949B15CE
:102B70000E94B914089582389105B9F1B0F48133F7
:102B8000910509F47DC048F48932910509F46DC0BE
:102B90008A32910509F47BC008958533910509F4C3
:102BA0005FC08933910509F10895833E9105D9F1FC
:102BB00038F4803E910529F1823E910579F108951E
:102BC000863E9105D9F1873E910509F43EC0843EC9
:102BD000910541F52091350321FF24C080913403F4
:102BE00084FD19C087EE90E008952091340323708E
:102BF00009F05AC02091350323FF14C089E290E008
:102C000008952091340320FD38C03091350330FF02
:102C100009C024FF43C090E080E008952091340370
:102C200022FDF7CF08952091340322FD3AC0309160
:102C3000350330FD39C024FFF5CFEDCF20913403AB
:102C400023FFF0CF24FDE7CFCDCF2091340323FD28
:102C50002EC03091350331FFEECF84EE90E0089521
:102C60002091340325FFDECFC9CF2091340325FD09
:102C700021C02091350323FFD5CF89E390E0D2CF47
:102C80002091340326FFCECF8AE290E00895209170
:102C9000340326FFC7CF81E390E0089583EE90E0F0
:102CA000089582EE90E0089580EE90E0089586EE1B
:102CB00090E0089585E390E008959091340392FFA9
:102CC00006C0282F28712830F9F4877F846093FF8D
:102CD00006C0282F28712831F1F4877E8461209165
:102CE000350320FF06C0382F38713830D9F4877F7C
:102CF000816021FF06C0282F28712831D1F4877EFA
:102D0000816194FD877E0895282F24712430F9F67F
:102D10008B7F8860DCCF282F2471243101F78B7ED4
:102D20008861DDCF382F3171313019F78E7F88609F
:102D3000E0CF282F2171213121F78E7E8861E1CFEC
:102D40001092300310923103109232031092330329
:102D50000895CF92DF92EF92FF926B017C010E9467
:102D6000A81881110EC00E94CD26C61AD70AE80AFB
:102D7000F90AC0923003D0923103E0923203F0920C
:102D80003303FF90EF90DF90CF9008950F931F9340
:102D90000E94A818882329F00E94CD261F910F9128
:102DA00008950E94CD2600913003109131032091A7
:102DB000320330913303600F711F821F931FEECFD8
:102DC00080E0089508950E943A13811102C00E9484
:102DD000E2130E944513809361020E944F13909367
:102DE0003503809334030E94E2160E944A1390E058
:102DF0000E941B0E8091FD019091FE010E94390EF0
:102E0000089508950E940117089508950E940517D6
:102E10000895E82FF0E0EF5BFC4F8081089508955E
:102E200080EA8A95F1F7089500C008950E9410176E
:102E3000089508950E9419170895A5E0B0E0E3E20F
:102E4000F7E10C942D2E0E94A818F82E60914B03E8
:102E5000882309F440C085E0E82E8E010F5F1F4FE4
:102E6000F8018E2D11928A95E9F7862F90E0B8012E
:102E70008F5B9C4F0E94DB188823B9F0809136034A
:102E800090E045E050E0B8018F5B9C4F0E947A2EA5
:102E900021E020936202892B91F4F12C0E94EE092B
:102EA0008F2D2596E6E00C94492E809162028823AE
:102EB000A1F3F8011192EA94E9F710926202A0914D
:102EC0003603B0E0AF5BBC4F85E0F80101900D9296
:102ED0008A95E1F7E3CF70E06F5B7C4F809136031A
:102EE00090E08F5B9C4F0E9462190E941A17D8CF06
:102EF000F894E82FE295EF70F0E031A1282F2F70C1
:102F000081E090E001C0880F2A95EAF7982F90950C
:102F1000932391A392A1892B82A378940895CF93B0
:102F2000DF93C1ECD1E089918F3F11F00E947817B7
:102F300081E0C63CD807B9F7CAEBD1E089918F3F51
:102F400011F00E94781781E0C13CD807B9F7DF91F2
:102F5000CF910895B0E0A0E0E0EBF7E10C942B2EC8
:102F6000EC01D62E062F10E0C8018F539E4F7C0136
:102F7000FC0180818F3F09F445C0F894E82FE29569
:102F8000EF70F0E091A18F7021E030E001C0220FDE
:102F90008A95EAF7892F822B81A382A12095282385
:102FA00022A378940E941417EAEBF1E041EC51E07F
:102FB00031E0C12C21912F3F51F1A22FA295AF708A
:102FC000B0E090968C9190E02F7002C09595879517
:102FD0002A95E2F780FD1BC0832FC82A330F4E17B6
:102FE0005F0741F7F70180818F3F11F00E9478174A
:102FF00061E0C11001C060E08D2D0E941617C00F66
:10300000D11FC882CDB7DEB7E8E00C94472E80E030
:10301000E4CF809103018091030195E0811190E05C
:1030200090934B0385E0891B809336030E948F1792
:103030008AE0E1E4F3E0DF01982F1D929A95E9F729
:10304000E7E3F3E0DF011D928A95E9F785E00E944E
:103050006A180E94EB090895AAE0B0E0E2E3F8E103
:103060000C942E2E8E010F5F1F4F8AE0F8011192F3
:103070008A95E9F7F12C6F2DC8010E94AA17F394E5
:10308000F5E0FF12F8CF4AE050E0B80187E393E0A3
:103090000E947A2E21E0009709F420E0892B41F06C
:1030A0008AE0F801A7E3B3E001900D928A95E1F779
:1030B00060914B0370E06F5B7C4F45E087E393E0EA
:1030C0000E946B18182F0E941D17812B2A96E5E08D
:1030D0000C944A2E0895CF92DF92EF92FF920F93B5
:1030E0001F93CF936C017B01042F222349F081E0D1
:1030F000809365020E94C1269093640280936302CC
:10310000C0916502C1110AC0C0E08C2FCF911F9100
:103110000F91FF90EF90DF90CF9008958091630220
:10312000909164020E94D926059770F310E0A801DF
:10313000B601C7010E947A2E892B41F0A801B60181
:10314000C7010E94872E10926502DFCFC0E0FBCF3F
:1031500080916802811107C00E94E62D882351F0FA
:1031600081E08093680281E090916802913009F0DB
:1031700080E0089582E0809368020E94E12DF3CF01
:103180000E94A81808950E94C018809303010E940D
:10319000A81881110E94111908950E94A818811180
:1031A00002C00E941419089581E0909169029A303A
:1031B00008F080E008950F931F93CF93DF93EC0105
:1031C0008B01809169028A30B8F4B801CE010E9467
:1031D0005F19C82F811122C0809169028F3FB9F415
:1031E0000E94C12690936702809366028C2FDF9124
:1031F000CF911F910F91089580916602909167027F
:103200000E94D926843F914000F7C0E0EFCF8F5F46
:10321000809369028A3020F7C1E0E8CF10926902FA
:10322000E5CF0E94112408950E9414240895B0E06F
:10323000A0E0EDE1F9E10C942C2E7901C82F880F64
:10324000DD0B41155105A9F0FE0193E0EE0FFF1FC4
:103250009A95E1F7EC5FFE4F8181928186599D4FEF
:10326000208130E04217530708F49A01A9010E9417
:10327000872ECE010E94FD24D82E8823D1F001157F
:103280001105B9F083E0CC0FDD1F8A95E1F7FE014F
:10329000EC5FFE4F438150E00417150708F4A801C6
:1032A000CC5FDE4F6C817D8166597D4FC7010E94E6
:1032B000872E8D2DCDB7DEB7E7E00C94482E0E9407
:1032C000881A08950E949F1A0895A091C601B0918E
:1032D000C7011C968C911C97E4E0F1E080A31D9639
:1032E0008C9183AB0895A4E0B0E0E9E7F9E10C9498
:1032F0002F2E6091C5027091C6028091C7029091F5
:10330000C8020E94E82611E0643671058105910526
:1033100018F10E94C6166E5F7F4F8F4F9F4F6983D3
:103320007A838B839C8310E000E030E020E044E06F
:1033300050E0BE016F5F7F4F82E00E941719182F87
:10334000882351F00E94CD266093C5027093C60277
:103350008093C7029093C802812F2496E4E00C94D6
:103360004B2ECF93DF93C091C601D091C70163E08C
:1033700070E0CE010B960E94601B9A85891317C0DE
:10338000EB85E830A4F488E0E802F0011124EC5F5A
:10339000FE4F0680F781E02D309749F09E01225DB7
:1033A0003F4FBE01625F7F4F4D858C850995DF9150
:1033B000CF910895B0E0A0E0E0EEF9E10C94292E61
:1033C0007C015B016A010E94D41801E010E08823AF
:1033D00011F00AE010E0C1E0D0E0B501C701F6014C
:1033E0000995811104C021960C171D072CF4CDB747
:1033F000DEB7EAE00C94452ECC9F9001CD9F300DB6
:10340000300D112490E080E045E34A95F1F700008B
:10341000019682179307C1F7E0CFA6E0B0E0E3E1A1
:10342000FAE10C94292E7B01C090C601D090C7010F
:1034300001E010E09E012A5F3F4F50E040E070E065
:1034400060E080E00E941719182F882309F448C013
:1034500056018FEFA81AB80A6091C1027091C2029A
:103460008091C3029091C4020E94E82664367105DF
:103470008105910568F105E010E09E012F5F3F4F47
:1034800050E040E070E060E081E00E941719D82E23
:1034900065E070E0C5010E94601B11E09E819813F9
:1034A00010E01D2141F10E94CD266093C10270936E
:1034B000C2028093C3029093C40285E0FE0131965C
:1034C000ACEBB2E001900D928A95E1F711E013C0E8
:1034D00065E070E0C5010E94601B9E818913CBCF1F
:1034E00085E0F6013196DE01119601900D928A95E4
:1034F000E1F71111E2CF85E0ECEBF2E0D7010190AA
:103500000D928A95E1F7812F2696EAE00C94452EDC
:103510000F931F93CF93DF93EC018B014DE05AE1A2
:103520000E94DA19882331F043E759E1B801CE014E
:103530000E94DA19DF91CF911F910F9108950F9397
:103540001F93CF93DF93C091C601D091C701CE01E5
:10355000019625E0FB01DC0101900D922A95E1F72F
:1035600065E070E00E94601B88836E817F818885A2
:1035700099850091B8021091B9022091BA02309158
:10358000BB02601771078207930751F06093B8027E
:103590007093B9028093BA029093BB020E94A9165D
:1035A000DF91CF911F910F910895873084F098E0BB
:1035B0008902F0011124EC5FFE4F778366838EE071
:1035C00090E0928381838EE290E0958384830895D6
:1035D000A5E0B0E0EEEEFAE10C94292E8D83E62E04
:1035E0005A01F22E68010E94D418811105C080E0B2
:1035F0002596EAE00C94452E8D818730C4F390E245
:103600009E15A8F39F1598F31A8219828A83EB827C
:10361000FC8263E070E0CE0102960E94601B898309
:10362000E0922401F092370110E000E030E020E069
:1036300044E050E0BE016F5F7F4F83E00E941719A6
:103640008823A9F24E2D50E030E020E0B50184E05F
:103650000E941719882359F230E020E041E050E041
:10366000BE016B5F7F4F85E00E941719882309F424
:10367000BECF0F2D10E0960150E040E070E060E01A
:1036800086E00E941719B4CF0E94BC280E941E1425
:103690000E94C92808950E94CE280E9432140E94D8
:1036A000E82808950E945A260E94A2280E94061423
:1036B0000E94441B0E944B1B0E941414FBCF0895D0
:1036C000FC01680F791F8FEF91E36E177F0709F4F4
:1036D00008952191822728E030E087FF06C0880FF7
:1036E000892721503109C9F7F0CF880FFACFB0E010
:1036F000A0E0EDE7FBE10C942B2E6C017B0164E66E
:1037000070E088E70E94D122EC0197FD12C010E022
:1037100000E0F601E00FF11F849164E670E00E9482
:103720003D23EC01892B29F40F5F1F4F0E151F0558
:1037300081F70E94B323CE01CDB7DEB7E8E00C9449
:10374000472E0895ECE4F3E080E092E0DF019C0175
:103750001D9221503040E1F7F0935305E09352055C
:103760008FEF9FEF9093EF028093EE0208950E94F7
:10377000A11B0E94B3088093EA0280FD0FC080E87D
:103780008093E9020E94CB226DE070E083EA9CE026
:103790000E94771B892B21F080E0089580E2F0CF12
:1037A0008091EA0263E070E081FD26C080EA9CE03F
:1037B0000E94771B892B81F76DE070E080E99CE027
:1037C0000E94771B892B41F70E94CD2668577C4EBB
:1037D0008F4F9F4F60934E0570934F058093500518
:1037E000909351050E94A21B81E08093ED0280938B
:1037F000EC021092EB0208958DE99CE0D9CF209164
:10380000E90236E0839FC0011124629F800D911D63
:103810001124811522E0920714F090E080E0845B8F
:103820009C4F909353058093520508958091ED022B
:10383000811103C08091EC0208950E94CD26685743
:103840007C4E8F4F9F4F60934E0570934F05809332
:103850005005909351058091EC028111EBCF62E00D
:1038600070E08EE89CE00E94771B892B19F781E0BD
:103870008093EC02DFCF2F923F925F926F927F9204
:103880008F929F92AF92BF92CF92DF92EF92FF9270
:103890000F931F93CF93DF938091ED02882369F0FC
:1038A0002091EE023091EF022115310531F0809127
:1038B000EB0261E070E0882399F0DF91CF911F91D6
:1038C0000F91FF90EF90DF90CF90BF90AF909F90BF
:1038D0008F907F906F905F903F902F9008958F5FB3
:1038E000082F10E01B01082E02C0220C331C0A9482
:1038F000E2F7A90142215321452B89F39091EA0275
:1039000090FD44C08295880F80768093460198018F
:10391000369527953695279520934901815E8093AA
:10392000470110924A0124E630E047E050E064E4A9
:1039300071E088E70E946B23892B09F0BECFA801B4
:1039400025E0440F551F2A95E1F78091EA0280FD9A
:103950002BC0445B5C4F04E610E020E230E060E402
:1039600088E70E948C23892B09F0A7CF0E94161CA0
:10397000E101C095D0958091EE029091EF02C823AD
:10398000D923D093EF02C093EE0297CF880F880F10
:10399000880F8093460110924901895F8093470107
:1039A00083E080934A01BFCFE9ECF2E080E2DF01DF
:1039B0001D928A95E9F7ACECB1E008EC11E080EDDE
:1039C000C82E81E0D82E97E0592E772473948D91DC
:1039D000E80129918E01240F352F311D245B3C4FC6
:1039E000E82FF0E0E753FD4F90E080E0652C681A87
:1039F000872C082E01C0880C0A94EAF77901A12CC3
:103A0000E701B9907E01B820662D6A196770962E7D
:103A1000062E000C770BDB2D01C0DD0F9A94EAF720
:103A20007195619571096770772701C0B6946A95A1
:103A3000EAF7BD2A6081962E9B289082A39468E0C5
:103A4000A612DECF019631968830910579F6CA1616
:103A5000DB0609F0BCCF04E610E020E230E049ECE0
:103A600052E07DCF8091EC029091ED02911103C064
:103A700091E089270895882369F062E070E08CE87E
:103A80009CE00E94771B892B19F08091EC0208952D
:103A90001092EC028091EC02EBCF0E948409089511
:103AA0000F931F938091ED02882379F180914C054B
:103AB00090914D050E94D926C29760F00E94C126C0
:103AC00090934D0580934C0560E080E00E94FF1BC1
:103AD0000E944D1D0E943B1C8091EC028823A9F09E
:103AE0000E94CD2600914E0510914F052091500562
:103AF00030915105601B710B820B930B6F3F7F4F11
:103B00008F4F9F4710F40E94321D1F910F9108950F
:103B1000CF93DF93EC01FB018281882309F464C118
:103B2000C430FDE5DF07E0F5CB3F9CE5D90730F475
:103B30009E0122503C4524313105D8F50E944F1397
:103B40009093350380933403C231ECE5DE0709F42A
:103B50001FC108F06EC0C9308CE5D80709F4F2C067
:103B600008F03FC0C530ECE5DE0709F4DBC058F5CE
:103B7000C3308CE5D80709F4CDC008F0CFC08091E0
:103B800034038160C230DC4509F4AEC08091340357
:103B9000909135030E945D130E94C60D80E009C01C
:103BA000C63AEDE5DE0751F238F4C2369DE5D90795
:103BB00029F2DF91CF9108959E012E5A3D45233081
:103BC0003105B8F7BBCF809134038062C730FCE584
:103BD000DF0709F489C008F4B1C080913403806420
:103BE00083C0CD309CE5D90709F4BAC070F4809148
:103BF00034038E7FCB30FCE5DF0709F475C008F491
:103C0000A7C0809134038D7F6FC0CF309CE5D9076A
:103C100009F4B6C008F4A8C0C031FCE5DF0709F418
:103C2000B3C0C131DC4509F0B1CF809134038F7B43
:103C30005BC0C1159DE5D90709F4B4C098F5CB3F29
:103C4000FCE5DF0709F472C0B8F4C4319CE5D9077C
:103C500009F4B6C008F4A2C0C531DC4509F096CF1E
:103C60008091340382FB992790F921E0922790FB01
:103C700082F990FB83F938C0CD3F8CE5D80709F471
:103C800077C008F457C0CE3FECE5DE0709F474C0F6
:103C9000809135038360CF3FDC4509F077CF809377
:103CA000350374CFC2368DE5D80709F496C068F4A1
:103CB000C230EDE5DE0709F48CC008F477C0C330EC
:103CC000DD4509F063CF80E085C0CE3A9DE5D90798
:103CD000E9F068F490913403892F8E7F90FF816022
:103CE000C63ADD4509F052CF809334034FCFCF3A27
:103CF0008DE5D80789F1C03BDD4509F047CF9091AC
:103D00003503892F877F93FF8860C9CF8091350362
:103D10008860C5CF809134038260E6CF8091340300
:103D20008460E2CF809134038860DECF80913503D8
:103D30008160B5CF809135038260B1CF809134032B
:103D40008061D2CF0E94C60D809134038068CCCFB1
:103D5000809134038C60C8CF80913503877F9FCFDB
:103D6000809134038B7FC0CF80913403877FBCCF99
:103D7000809135038E7F93CF809135038D7F8FCFD8
:103D8000809134038F7EB0CF809134038F7DACCF90
:103D90000E94C60D809134038F77A6CF80913403A3
:103DA000837FA2CF809135038C7F79CF80913503BB
:103DB000982F909591708E7F892B90FB81F96FCF12
:103DC0000E94C60D90913403892F97FB87F9805884
:103DD0008BCF81E00E94E513D9CE90913403892FD7
:103DE0008F7E94FF806180CF81E0E3CECF93DF931D
:103DF000EB0186319C4511F50E9453129A8199235B
:103E000099F08A7A91E009F490E09093F0028111A0
:103E100009C089E20E942B120E94941280E0DF9177
:103E2000CF91089585E3F6CF8091F002811104C00F
:103E300089E20E943312F0CF85E3FBCF81E0EFCF20
:103E4000B0E0A0E0E6E2FFE10C94232EEC01E88173
:103E5000F981CF01815095458F3F910510F485E59B
:103E6000F827DB0112964C90442009F45AC2EF3F28
:103E7000F105A9F0A0F0EB32FD4521F01092F1021E
:103E8000A42D07C08091F10291E089278093F1026F
:103E9000A0E08A2FCDB7DEB7E0E10C943F2EA091D1
:103EA000F102AA2309F4E9C01092F102E03CF10505
:103EB000F0F5E038F10508F0AAC0E034F10508F0AB
:103EC00070C021E030E040E050E060E070E080E071
:103ED00090E00E2F0E94582EB091F2022B2BB09141
:103EE000F3023B2BB091F4024B2BB091F5025B2B0C
:103EF000B091F6026B2BB091F7027B2BB091F802D8
:103F00008B2BB091F9029B2B2093F2023093F3029A
:103F10004093F4025093F5026093F6027093F70217
:103F20008093F8029093F902F983E883B2CFEF3FD0
:103F3000F10509F030F621E030E040E050E060E0CB
:103F400070E080E090E08F01005C11090E94582E23
:103F5000B0910A032B2BB0910B033B2BB0910C03B8
:103F60004B2BB0910D035B2BB0910E036B2BB091DB
:103F70000F037B2BB09110038B2BB09111039B2B64
:103F800020930A0330930B0340930C0350930D03CB
:103F900060930E0370930F038093100390931103AB
:103FA000C3CF21E030E040E050E060E070E080E02E
:103FB00090E08F01005411090E94582EB091FA022E
:103FC0002B2BB091FB023B2BB091FC024B2BB09101
:103FD000FD025B2BB091FE026B2BB091FF027B2B9D
:103FE000B09100038B2BB09101039B2B2093FA021D
:103FF0003093FB024093FC025093FD026093FE025B
:104000007093FF0280930003909301038DCF21E012
:1040100030E040E050E060E070E080E090E08F0150
:10402000005811090E94582EB09102032B2BB09119
:1040300003033B2BB09104034B2BB09105035B2B87
:10404000B09106036B2BB09107037B2BB091080353
:104050008B2BB09109039B2B209302033093030316
:104060004093040350930503609306037093070382
:10407000809308039093090357CFE034F10508F0CB
:1040800067C07090F2028090F3029090F402D09199
:10409000F502C091F602B091F7025090F8026090DC
:1040A000F90221E030E040E050E060E070E080E0C4
:1040B00090E00E2F0E94582E59016A017B018C015D
:1040C00027213B2D382149215D2D5D236C237F2D38
:1040D0007B238521912F96210E94712E09F0D0CE4D
:1040E000E03CF10508F08EC0E038F10508F0EBC0C7
:1040F000E034F10508F0B9C021E030E040E050E0E4
:1041000060E070E080E090E00E2F0E94582E209535
:1041100030954095509560957095809590952721A4
:10412000382149215D236C237B238521962120930F
:10413000F2023093F3024093F4025093F50260933D
:10414000F6027093F7028093F8029093F902A1CEE1
:10415000E038F105E0F47090FA028090FB02909054
:10416000FC02D091FD02C091FE02B091FF0250907E
:1041700000036090010321E030E040E050E060E0A7
:1041800070E080E090E08F010054110993CFE03C93
:10419000F105E0F470900203809003039090040313
:1041A000D0910503C0910603B09107035090080316
:1041B0006090090321E030E040E050E060E070E012
:1041C00080E090E08F010058110974CF70900A03CD
:1041D00080900B0390900C03D0910D03C0910E03BF
:1041E000B0910F03509010036090110321E030E074
:1041F00040E050E060E070E080E090E08F01005C23
:10420000110958CFEF3FF10511F008F075CF8F017C
:10421000005C110921E030E040E050E060E070E037
:1042200080E090E00E94582E209530954095509562
:1042300060957095809590952721382149215D23BF
:104240006C237B238521962120930A0330930B0353
:1042500040930C0350930D0360930E0370930F0370
:10426000809310039093110314CE8F010054110911
:1042700021E030E040E050E060E070E080E090E07D
:104280000E94582E209530954095509560957095D8
:10429000809590952721382149215D236C237B232C
:1042A000852196212093FA023093FB024093FC0271
:1042B0005093FD026093FE027093FF02809300030F
:1042C00090930103E6CD8F010058110921E030E001
:1042D00040E050E060E070E080E090E00E94582E06
:1042E0002095309540955095609570958095909566
:1042F0002721382149215D236C237B2385219621A9
:104300002093020330930303409304035093050367
:104310006093060370930703809308039093090347
:10432000B8CDA1E0EF3FF10509F098F5E034F105D3
:1043300090F58090F2029090F302D091F402C09137
:10434000F502B091F602A091F7026090F802709029
:10435000F90221E030E040E050E060E070E080E011
:1043600090E00E2F0E94582E59016A017B018C01AA
:1043700028213B2D39214D235D2D5C236B237F2D7F
:104380007A23A1E08621912F97210E94712E09F4B2
:10439000A0E0A1707ECDE038F105E0F48090FA0253
:1043A0009090FB02D091FC02C091FD02B091FE0200
:1043B000A091FF0260900003709001038F010054F0
:1043C000110921E030E040E050E060E070E080E082
:1043D00090E0C8CFE03CF105A0F4809002039090FB
:1043E0000303D0910403C0910503B0910603A0918B
:1043F000070360900803709009038F0100581109AA
:10440000E0CF80900A0390900B03D0910C03C091F1
:104410000D03B0910E03A0910F03609010037090F4
:1044200011038F01005C1109CCCF0F931F93CF9321
:10443000DF93C42FD22FFC0182818823C9F04093DF
:1044400014030E94C126909313038093120380E209
:104450008C0F883040F4C77081E001C0880FCA9586
:10446000EAF70E94770BDF91CF911F910F9108958A
:1044700010911403141332C080911203909113030E
:104480000E94D926883C910548F5C0E2CD0F1D1742
:10449000B9F080E2810F883040F4177081E001C0EC
:1044A000880F1A95EAF70E947E0BC83048F481E025
:1044B0009D2F977001C0880F9A95EAF70E94770B9D
:1044C000802F0E946E0BC83070F6D77081E001C05B
:1044D000880FDA95EAF70E947E0BC5CF80E28C0F39
:1044E000883008F6C77081E001C0880FCA95EAF7E6
:1044F000F2CF0F939C01CB01243F4CE5340759F1D7
:10450000A8F4293DFCE53F0701F12A3D4CE53407BD
:10451000D1F1283D3C4591F406E221EE41EE68EDF3
:104520007CE50E94152280E00F910895263FFCE56E
:104530003F07E9F0B0F0273F3C45F9F0FC018281EC
:10454000882339F110921403EFCF07E225EE45EEF0
:1045500069ED7CE5E6CF06E221EE40EE64EF7CE516
:10456000E0CF07E225EE44EE65EF7CE5DACF06E228
:1045700021EE42EE66EF7CE5D4CF07E225EE46EE73
:1045800067EF7CE5CECF08E221E045EE6AED7CE501
:10459000C8CF81E0C9CF1092B9008CE08093B800F9
:1045A0000895B0E0A0E0E7EDF2E20C94282EB82EDA
:1045B000EB010E94C1266C01EE24E394F12CC4317E
:1045C000D10560F025E0E22EF12CCF3FDC0731F081
:1045D000CE0164E170E00E94F32D7B0184EAA82EF5
:1045E00094E8992E1092BC00A092BC000E94C126B3
:1045F0008C018091BC0087FF0DC08091B900887F3D
:104600008830F9F08091B900887F8031D1F00FEFC8
:104610001FEF08C0C8010E94D926E816F90648F71E
:104620000EEF1FEFCF3FDC07E9F2C6010E94D9264B
:10463000C817D907B8F6C801CDB7DEB7EBE00C94C0
:10464000442EB092BB009092BC000E94C1268C0107
:104650008091BC0087FF0AC08091B900887F8831B3
:1046600011F08034A1F610E000E0E5CFC8010E940F
:10467000D926E816F90660F7D3CF0F931F93CF938F
:10468000DF93EB018093BB0084E88093BC000E9421
:10469000C1268C018091BC0087FF11C02091B90018
:1046A000287F81E090E0283211F490E080E091953D
:1046B00081959109DF91CF911F910F910895CF3F7F
:1046C000DC0741F3C8010E94D926C817D90710F7A3
:1046D0008EEF9FEFEFCFB0E0A0E0E1E7F3E20C94C4
:1046E0002B2E6B018A017901B9010E94D122E601CA
:1046F0000C0D1D1DC017D10711F097FF08C024E94C
:104700002093BC00CDB7DEB7E8E00C94472EB7018C
:1047100089910E943D23EECFB0E0A0E0E2E9F3E210
:104720000C942B2EC62F6A017901B8010E94D12268
:1047300097FD0CC0B8018C2F0E943D23E601EC0CC4
:10474000FD1CCE15DF0511F097FF08C024E920936A
:10475000BC00CDB7DEB7E8E00C94472EB8018991D4
:104760000E943D23EECF84E98093BC0008958EE142
:104770004A9B02C08150E1F74A9BFECF08955A98A8
:1047800080E28A95F1F75A9A0895FC013BE03A9548
:10479000F1F798E020E080E031E040E14A95F1F760
:1047A000880F4A9B02C08160232742E04A95F1F7B7
:1047B000000040E14A95F1F7915079F790E19A9520
:1047C000F1F799B132E03A95F1F7000040E14A95EE
:1047D000F1F792FB992790F992272081920F90830D
:1047E0000895A1E0B0E0E7EFF3E20C942D2E1982DA
:1047F0008C017C01E60EF11C0E151F0541F481E0D1
:104800009981911180E02196E6E00C94492E0E9456
:10481000B723CE0101960E94C523F80181938F0131
:10482000EBCF529A5A9A089552985A9AEA9AE9E620
:10483000F0E080818F7C808308956150770B91E058
:1048400001C0990F6A95EAF720E031E0911108C0A4
:10485000222391F05A9A80E28A95F1F75A980895A6
:10486000492F482339F05A9A232740E24A95F1F715
:104870009695ECCF5A98F9CF5A98EDCFFF920F93B7
:104880001F93CF93DF93EC018C01060F111DC0170E
:10489000D10729F4CDB7DEB7E5E00C944A2EF990A4
:1048A0000E94BF2368E08F2D0E941D24F0CF1F922D
:1048B0000F920FB60F9211240F931F932F933F93D4
:1048C0004F935F936F937F938F939F93AF93BF9318
:1048D000EF93FF93CF93DF930F92CDB7DEB719829B
:1048E0000E94B723CE0101960E94C523082F06958A
:1048F00006950695282F22952570902F9570290FE3
:10490000922F937026952695920F982797708981FC
:10491000982B09F05CC0093008F059C080E18A95F5
:10492000F1F75A9A529A82E08A95F1F700C05A98A4
:1049300088E0089F80011124D801AC5FBE4F169615
:10494000ED91FC9117973097A9F06091C601709195
:10495000C70114962D913C911597260F371F11967C
:104960008D919C911297680F791F13964C91139714
:104970008C910995F801EC5FFE4F6381662351F03D
:104980002091C6013091C70184819581820F931FC8
:104990000E943E240E94BF2380E18A95F1F75A9835
:1049A00052985A9A80E18A95F1F7F801EC5FFE4F30
:1049B0006081662351F02091C6013091C701818149
:1049C0009281820F931F0E94F1230E94B7230F90C0
:1049D000DF91CF91FF91EF91BF91AF919F918F9117
:1049E0007F916F915F914F913F912F911F910F9107
:1049F0000F900FBE0F901F9018950F931F93CF939A
:104A0000DF93EC0109970CF04CC0F894529A5A9835
:104A100085E08A95F1F700009C2F969595708C2F74
:104A20008570980F892F83709695969523E0CC0F0B
:104A3000DD1F2A95E1F7980F8E01092B0E94BF23F5
:104A400000C068E0802F0E941D2480E18A95F1F764
:104A500052985A9A4A9B1EC087E090E04A991CC01F
:104A6000FE01EC5FFE4F63816623F9F02091C601E1
:104A70003091C70184819581820F931F0E94F12399
:104A8000811113C0529A5A9A7894DF91CF911F9155
:104A90000F91089500C0DECF019729F4529A5A9AD7
:104AA000789480E0F2CF00C0D9CF0E94B72380E293
:104AB0008A95F1F75A98529A80E18A95F1F7CC5F7E
:104AC000DE4F6881662351F02091C6013091C70105
:104AD00089819A81820F931F0E943E240E94BF23E6
:104AE000789481E0D2CF9093D1018093D001089542
:104AF00090931B0380931A0308950E94A8188111B4
:104B000003C0809115030895E0911A03F0911B03EF
:104B1000309729F00190F081E02D0995089580E00B
:104B20000895E0911A03F0911B03309721F0028061
:104B3000F381E02D09950895209118033091190310
:104B40002817390771F09093190380931803E091A7
:104B50001A03F0911B03309721F00680F781E02DB6
:104B600009950895209116033091170328173907E6
:104B700071F09093170380931603E0911A03F0915C
:104B80001B03309721F00084F185E02D09950895ED
:104B90009C012E5F3F4FAC01485F5F4F80E02417C0
:104BA000350709F40895F90191919F019923B9F30B
:104BB0008F5FF5CF662349F0FC013296089621916C
:104BC000261729F0E817F907D1F780E0089581E06A
:104BD00008959C01FC0132969FEF80E041914617B9
:104BE00051F09F3F19F4411101C0982F8F5F86301B
:104BF000A9F79F3F09F40895290F311D97FD3A95B4
:104C0000F90162830895FC013296089621912613DA
:104C100003C0DF0111971C92E817F907B9F708954F
:104C20000E94E92508950E9403260895029626E031
:104C3000FC0111922A95E9F7089508950E941D2616
:104C40000895811106C081E080931C030E941E26F6
:104C5000089582E0F9CF83E080931C030E941E2612
:104C600008950E942126089581E080931C030E94EC
:104C70001E2608950E943426089508950E94FB0779
:104C80000895089508950E943D260895CF930E94A7
:104C900041260E942C180E944226C0E08C2F0E94C0
:104CA0000917811105C0CF5FCA30C1F7CF910895B0
:104CB00081E0FCCF85B7806885BF85B7806885BFF8
:104CC00008951F921FB61F9211248F939F93AF9345
:104CD000BF9380911D03811113C080915405909161
:104CE0005505A0915605B09157054196A11DB11DDE
:104CF0008093540590935505A0935605B09357059E
:104D0000BF91AF919F918F911F901FBE1F901895DB
:104D100080915C05843031F10E946E0A10921D036F
:104D200088E190E020E40FB6F894A89580936000A5
:104D30000FBE2093600083B7817F846083BF83B7F9
:104D4000816083BF7894889583B78E7F83BF0FB6C9
:104D5000F894A8958091600088618093600010921B
:104D600060000FBE08950E94C60D0E94750A089546
:104D700082E084BD93E095BD9AEF97BD80936E006D
:104D800008952FB7F8948091540590915505A091FE
:104D90005605B09157052FBF08952FB7F89460912D
:104DA00054057091550580915605909157052FBF78
:104DB00008959C014FB7F894809154059091550542
:104DC000A0915605B09157054FBF821B930B0895D4
:104DD000CF92DF92EF92FF922FB7F894C0905405D4
:104DE000D0905505E0905605F09057052FBFA701CC
:104DF0009601261B370B480B590BCA01B901FF90CE
:104E0000EF90DF90CF90089578941F921FB61F9275
:104E100011248F939F93AF93BF93809154059091EA
:104E20005505A0915605B09157050196A11DB11DDC
:104E30008093540590935505A0935605B09357055C
:104E4000BF91AF919F918F911F901FBE1F9018959A
:104E500087E797E7909301088093000888E19AE03C
:104E60000FB6F894A895809360000FBE90936000F1
:104E7000FFCF88E19AE00FB6F894A8958093600080
:104E80000FBE90936000FFCF80912903089508958D
:104E9000CF93DF93EC0181E08093E9008FEF909155
:104EA000E800815095FD06C095ED9A95F1F7000058
:104EB0008111F5CF8091E80085FF14C050E040E0FB
:104EC00068E070E0CE010E945A298091E8008E7758
:104ED0008093E80088E0FE01A1E2B3E001900D922A
:104EE0008A95E1F7DF91CF91089580931E03709327
:104EF000200360931F0380915C05843001F582E0FC
:104F00008093E9008FEF9091E800815095FD06C0F5
:104F100095ED9A95F1F700008111F5CF8091E800A9
:104F200085FF0DC050E040E063E070E08EE193E06B
:104F30000E945A298091E8008E778093E8000895B6
:104F4000BC0184E00E9475270895BC0183E00E94A3
:104F500075270895089580915B05811109C00E940D
:104F6000EA2A0E94472B8091E20084608093E2004D
:104F7000089510925B0508950E943426089560916B
:104F8000580581E0611101C080E00E942B26089540
:104F900090915C0581E0943009F080E060915805C3
:104FA0000E943126089542E061EC81E00E94662A69
:104FB00042E261EC82E00E94662A90915C0581E009
:104FC000943009F080E0609158050E9421260895F0
:104FD00080915E05833009F461C030F48130D1F1F5
:104FE000823009F49EC008958A3009F48AC08B305B
:104FF00009F46FC0893009F050C080915D0581329D
:1050000009F04BC08091610590916205029708F00C
:1050100044C08091E800877F8093E8008091E80099
:1050200082FF37C09091F3008091F200029731F433
:105030008091F100813011F0863021F48091F100EF
:10504000809329038091E8008B778093E8000E9489
:105050009A2A23C080915D05813AF9F48091E80095
:10506000877F8093E8008091610590916205892B8C
:1050700061F468E081E293E070E00E94A9298091E8
:10508000E8008B778093E800089560E090E080E08E
:10509000F3CF80915C058111C1CF089580915D05AA
:1050A000813AD9F78091610590916205892BA9F722
:1050B0008091E800877F8093E8008091E80080FF7E
:1050C000FCCF809157018093F1008091E8008E77AA
:1050D000BCCF80915D05813201F78091610590918F
:1050E0006205892BD1F68091E800877F8093E800E4
:1050F0000E949A2A80915F05809357010E94C60DF5
:10510000089580915D05813241F68091E800877FA6
:105110008093E8000E949A2A8091600580932A0378
:10512000089580915D05813A09F0B7CF8091E8003C
:10513000877F8093E8008091E80080FFFCCF80911A
:105140002A03C1CF84B7877F84BF0FB6F894A89590
:1051500080916000886180936000109260000FBEB3
:1051600080E890E00FB6F89480936100909361001E
:105170000FBE0E943A2608950E94EA2A0E94472BF9
:10518000E2EEF0E080818460808378940E94C62DF6
:1051900008958BE491E00E947825089580915C0544
:1051A000853031F480915C05853019F00E94B3267A
:1051B00008950E94882680915A05882399F30E94B9
:1051C0004626882379F30E9444290E94C60DEACF1F
:1051D00008950E94EC280895292F332723303105A4
:1051E00019F168F42130310509F444C02230310549
:1051F00009F445C090E080E030E020E025C0213295
:10520000310549F122323105A9F780E490E029E621
:105210003DE061157105C1F082E390E027E33DE0D8
:105220006130710589F0E6CF99278130910581F0D1
:10523000009729F00297F1F6E0EBFCE002C0E6EE01
:10524000FCE0849190E09F01FA013183208308956E
:10525000EAECFCE0F6CF89E090E02CEF3CE0611551
:10526000710591F389E090E025E13DE06130710541
:1052700059F3C0CF82E190E025E23DE0E5CF8BE33A
:1052800090E02AEE3CE0E0CF80E189BD82E189BD7B
:1052900009B400FEFDCF8091D8008F7D8093D800A7
:1052A0008091E00082608093E0008091E00081FDC9
:1052B000FCCF0895AF92BF92CF92DF92FF920F93EF
:1052C0001F93CF93DF936C01EB018A010E94B92AEF
:1052D000F82E811123C00115110539F0F8018081E4
:1052E0009181C81BD90BC80ED91EB12CA12C2097B7
:1052F000A9F08091E80085FD22C08091E8008E77BA
:105300008093E80001151105A1F0F80180819181D9
:10531000A80EB91EB182A08285E0F82E8F2DDF91F4
:10532000CF911F910F91FF90DF90CF90BF90AF90E2
:1053300008950E94B92A8823D1F2F82EEFCFF60102
:1053400081916F018093F1002197FFEFAF1ABF0A9F
:10535000CECFFC0180916305909164058617970775
:10536000A0F06115710529F49091E8009E77909363
:10537000E80090E06115710551F4911108C0809129
:10538000E80082FF34C080E00895BC01F2CF809134
:105390005C058823C1F18530C1F18091E80083FD6F
:1053A00030C08091E80082FDEACF8091E80080FF64
:1053B000E1CF8091F3002091F200382F6115710543
:1053C00019F02830310558F091E02830310509F006
:1053D00090E02091E8002E772093E800CBCF8191D8
:1053E0008093F100615071092F5F3F4FE7CF8091AB
:1053F0005C05882341F0853041F08091E80083FF0F
:10540000BECF81E0089582E0089583E00895FC0115
:10541000809163059091640586179707A0F0611548
:10542000710529F48091E8008E778093E80090E080
:105430006115710551F4911108C08091E80082FF57
:1054400035C080E00895BC01F2CF80915C058823CF
:10545000C9F18530C9F18091E80083FD31C08091A8
:10546000E80082FDEACF8091E80080FFE1CF8091E3
:10547000F3002091F200382F6115710519F02830E2
:10548000310558F091E02830310509F090E0809125
:10549000E8008E778093E800CBCF84918093F10071
:1054A0003196615071092F5F3F4FE6CF80915C05C7
:1054B000882341F0853041F08091E80083FFBDCF23
:1054C00081E0089582E0089583E00895982F973051
:1054D00028F08F708093E90081E008959093E900AF
:1054E000242F762F50E0981731F07091EC00209126
:1054F000ED005091F00021FD02C09F5FE8CF309198
:10550000EB003E7F3093EB003091ED003D7F309318
:10551000ED003091EB0031603093EB007093EC00C4
:105520002093ED005093F0002091EE0027FDE5CF91
:1055300080E0089580915D0587FF13C08091E800A9
:1055400082FF06C08091E8008B778093E80004C05A
:1055500080915C058111F2CF089580915C058823CC
:10556000D9F38091E80080FFF8CF8091E8008E7732
:10557000ECCF2091E4003091E50095E6A90120915F
:10558000EC00822F817020FF06C08091E80080FF30
:1055900006C080E008952091E80022FD1AC08091A5
:1055A0005C05882389F0853089F08091EB0085FDCA
:1055B0000FC02091E4003091E50042175307F9F243
:1055C0009150E1F684E0089582E0089583E0089523
:1055D00081E008950E94592B0E94612BE0EEF0E0DB
:1055E000808181608083E8EDF0E080818F77808327
:1055F00019BCA7EDB0E08C918E7F8C9380818F7E5B
:10560000808310925B0508950F931F93CF93DF93D0
:105610000E94592B0E94612BC8EDD0E088818F77C2
:10562000888388818068888388818F7D888319BC7E
:1056300010925C051092580510925A051092590567
:1056400000EE10E0F80180818B7F8083888181608B
:10565000888342E060E080E00E94662AE1EEF0E0AC
:1056600080818E7F8083E2EEF0E0808181608083A4
:10567000808188608083F80180818E7F808388812B
:1056800080618883DF91CF911F910F910895E8ED9C
:10569000F0E080818F7E8083E7EDF0E080818160A3
:1056A000808384E082BF81E080935B050E94042BAD
:1056B0000895E8EDF0E080818E7F80831092E20013
:1056C00008951092DA001092E10008951F920F924F
:1056D0000FB60F9211242F933F934F935F936F93C5
:1056E0007F938F939F93AF93BF93EF93FF9380919B
:1056F000E10082FF0BC08091E20082FF07C0809131
:10570000E1008B7F8093E1000E94C52D8091DA003B
:1057100080FF19C08091D80080FF15C08091DA0009
:105720008E7F8093DA008091D90080FF96C080E15F
:1057300089BD82E189BD09B400FEFDCF81E080937F
:105740005C050E94AB278091E10080FF19C0809129
:10575000E20080FF15C08091E2008E7F8093E2001E
:105760008091E20080618093E2008091D8008062A5
:105770008093D80019BC85E080935C050E94BF2708
:105780008091E10084FF2BC08091E20084FF27C05C
:1057900080E189BD82E189BD89B5982F917080FF34
:1057A000FBCF8091D8008F7D8093D8008091E1005D
:1057B0008F7E8093E1008091E2008F7E8093E200F3
:1057C0008091E20081608093E200809158058823F7
:1057D00009F449C084E080935C050E94C827809149
:1057E000E10083FF29C08091E20083FF25C0809102
:1057F000E100877F8093E10082E080935C05109256
:1058000058058091E1008E7F8093E1008091E20055
:105810008E7F8093E2008091E20080618093E200BD
:1058200042E060E080E00E94662A8091F00088609B
:105830008093F0000E94BC27FF91EF91BF91AF9140
:105840009F918F917F916F915F914F913F912F9198
:105850000F900FBE0F901F90189519BC10925C0509
:105860000E94B92770CF8091E30087FD93E0909369
:105870005C05B3CF1F920F920FB60F9211242F9396
:105880003F934F935F936F937F938F939F93AF93C8
:10589000BF93CF93DF93EF93FF93D091E900DF7035
:1058A0008091EC00C82FC17080FDC0E81092E90023
:1058B0008091F000877F8093F00078940E947E2C86
:1058C0001092E9008091F00088608093F000CD2B69
:1058D000CF70C093E900FF91EF91DF91CF91BF911D
:1058E000AF919F918F917F916F915F914F913F9178
:1058F0002F910F900FBE0F901F901895AAE2B0E065
:10590000E4E8FCE20C94302E8DE595E02091F10066
:10591000FC012193CF01F5E085369F07B9F70E947E
:10592000E8278091E80083FF1EC180915D0590917A
:105930005E059A3008F017C1E92FF0E0EA51F14D09
:105940000C941B2E803899F0823809F00CC180919C
:1059500061058F70873008F006C18093E90080915F
:10596000EB0085FB882780F91092E90006C0809142
:10597000590590915A05911182609091E800977FA6
:105980009093E8008093F1001092F1008091E8007C
:105990008E77E5C0882309F4D3C0823009F0E3C0D4
:1059A00080915F058111D6C0809161058F702FEFC6
:1059B000280F263008F0D7C08093E9002091EB0033
:1059C00020FFC8C0933031F48091EB008062809357
:1059D000EB00C0C09091EB0090619093EB0021E050
:1059E00030E001C0220F8A95EAF72093EA00109276
:1059F000EA008091EB008860EACF8111B4C0109179
:105A00005F051F778091E3008078812B8093E3000E
:105A10008091E800877F8093E8000E949A2A809115
:105A2000E80080FFFCCF8091E30080688093E30072
:105A300082E0111183E080935C0595C0805882302C
:105A400008F091C080915F05909160058C3D23E046
:105A50009207A1F583E08A838AE289834FB7F8949D
:105A6000DE01139620E03EE051E2E32FF0E0509398
:105A70005700E49120FF03C0E295EF703F5FEF70A5
:105A80008E2F90E0EA30C0F0C7968D939D932F5FE4
:105A9000243159F74FBF8091E800877F8093E80059
:105AA0006AE270E0CE0101960E94A9298091E80087
:105AB0008B778093E80057C0C096E7CF609161056F
:105AC00070916205AE014F5F5F4F0E94E928BC01F3
:105AD000892B09F448C09091E800977F9093E800E3
